:1080000002A28F028535029E6502A51802A54E02C6
:108010008D1874FC2581F581129F3DD20A7F1012C4
:10802000A139C20A12A1651289623012679000025A
:10803000E030E40AE054EFF0129F8012930F9000BA
:1080400002E030E00A129B08900002E054FEF0903B
:108050000002E030E50A12975E900002E054DFF083
:10806000900008E030E0067401F01280999000085A
:10807000E030E30912A1A69000087408F030040A69
:10808000E53C2410129D6B129D5AE53C240D129D77
:108090006B129D5A12A53F8091E4900004F090006D
:1080A00006E020E2030281291294817518019000F4
:1080B0000AE0F510E0F511E0751200F513E0FEEEB0
:1080C0004212E0751400F515E0FEEE4214E075165C
:1080D00000F517E0FEEE4216C20A128E9C5039C31C
:1080E000E517951AE51695195006AE16AF178004D8
:1080F000AE19AF1A8E198F1AE51A45197005751841
:1081000004801BE51030E70575180280037518031D
:108110001294654480F080061294624420F090002E
:1081200006E054F4440412943C12946C6403704CC2
:10813000900006E030E145129489400575541080A6
:1081400003851A54129481E4F546E546C3955450CC
:108150000E90000AE01294741283CF054680EB90D3
:108160000006129433D20A128E9C500A1294447064
:108170000B75180480061294624420F012946C640B
:1081800002600302822B129489400575541080030B
:10819000851A54E4F546E546C39554500E1294747E
:1081A00012839090000AF0054680EB12946544100B
:1081B000F0129444705C900006E030E03DE054F131
:1081C000440112943CE5546410702A129481129474
:1081D000654410F0900006E030E00AE054F14401FC
:1081E00012943C8010900006E020E23F900006E0F0
:1081F00030E1E1800C7518048031900006E030E138
:1082000008129433E4F5188022900006E030E2A6CC
:108210008019D20A128E9C900006E020E004E03023
:10822000E2F5900006E054F14401F012946C64040D
:10823000703DE51030E719900006E020E104E030E1
:10824000E2F5900006E05470F0E054F24402801928
:108250001294654410F0900006E020E004E030E263
:10826000F5900006E054F1440112943CE4F5181234
:10827000946C64057015900006E020E304E030E2A1
:10828000F5900006E054D0F0E4F51822E51E24FE37
:10829000605414700302834A14607C240360030258
:1082A000835D7F0112836C789812835ED20ED20FA9
:1082B000755501789912835EE51D30E206D20ED223
:1082C0000F8004D20EC20F129BE5C20E12A26C20C8
:1082D000090302835DE5412406F582E43540F58318
:1082E00012841F0284517F02129C1AD20EC20FE424
:1082F000F5557896128365D20EC20F7555017897A1
:10830000128365E51D30E106D20ED20F8004D20E35
:10831000C20F129BE5802E7F0412836C789AE6F5DB
:10832000561290FCD20ED20F755501789BE6F55689
:108330001290FCE51D30E306D20ED20F8004D20E5F
:10834000C20F129BE5C20E02A26CD20E12A26CE505
:108350001D30E604D20E8002C20E12A25D22E6F5A6
:10836000561290FC22E6F5561290FC22129C1AD26C
:108370000ED20FE4F55522BB010689828A83E022E2
:108380005002E722BBFE02E32289828A83E4932221
:10839000BB010CE58229F582E5833AF583E02250A2
:1083A00006E92582F8E622BBFE06E92582F8E222EC
:1083B000E58229F582E5833AF583E49322BB010641
:1083C00089828A83F0225002F722BBFE01F322F851
:1083D000BB010DE58229F582E5833AF583E8F022B9
:1083E0005006E92582C8F622BBFE05E92582C8F2BF
:1083F00022EF8DF0A4A8F0CF8CF0A428CE8DF0A4AD
:108400002EFE22A42582F582E5F03583F58322FA3B
:10841000E6FB0808E6F925F0F618E6CA3AF622E483
:1084200093FB740193FA740293F922D083D082F8FB
:10843000E4937012740193700DA3A393F8740193E5
:10844000F5828883E4737402936860EFA3A3A3802A
:10845000DF8A838982E473E51FC4540FF53AE51F70
:10846000540F1424FD504070030285101470030251
:1084700084F8240560030285347494253AF8E6FFF5
:1084800078A0D3128E2E500F7494253AF8A606D2F7
:108490000E853A55029EF7D20E853A557494253AC8
:1084A000F8E6F556029930E51EB4030122E51E24D4
:1084B000FE600804700A754902800875490180034E
:1084C000754903128E5AE6FF74A02549F8128E2DC5
:1084D0005005128E5AA606E54964026005E549B4C6
:1084E0000306D20ED20F8004D20EC20F853A551267
:1084F0008E5AE6F5560290FC749E253AF8E678A569
:10850000128E2C5007749E253AF8A606D20E8016BD
:10851000749C253AF8E678A4128E2C5007749C259A
:108520003AF8A606C20E853A55749E253AF8E6F545
:10853000561294F322C0D075D008056112A0958020
:1085400005C333CE33CED8F97803C333CE33CED878
:10855000F9FFE561FB7A006F7001EE703D30073A7C
:10856000C28CC2077F07129FF68F62E51D30E507B8
:10857000E5624408FF8005E56254F7FF8F62E51D60
:1085800030E407E5624404FF8005E56254FBFF8F99
:1085900062AD627F0712A0DE807612A0958005C3CF
:1085A00033CE33CED8F912A0A4B50B17EEB50A130B
:1085B000201210C28CD212900000E04480F0900093
:1085C000B4804912A0958005C333CE33CED8F912BA
:1085D000A0A465617001EE7037301234C28C7F0F39
:1085E000129FF6EF54C9F562FD7F0F12A0DEE490F2
:1085F0000059F09000B9E04402F0900058E0440CBB
:10860000F000000000E054F3F09000B9E054FDF0F9
:10861000D0D022E512640160030286EEF546128E88
:108620001E741293651560070546E546B402EFE532
:1086300046B40202C322E51530E7057549018003FF
:10864000E4F549E51030E76E751900751A03E51178
:10865000247E602714603714604B24037051128EFF
:1086600078248EF8E6F52A128E78248FF8E6F52B1A
:10867000128E782490F8E6F52C803690A5D8E493F5
:10868000F52A90A5D7E493F52B90A5D6801190A656
:1086900000E493F52A90A5FFE493F52B90A5FEE462
:1086A00093F52C800C752A05E4F52BF52C8002C37C
:1086B00022128E388038E51164017030200C14F5D8
:1086C00019751A03128E78248EF9E4F55EF55F8928
:1086D00060801B128E1E741193F51F128E1EE58290
:1086E0002413F582E43583128E478002C322D322FD
:1086F000E51F1424FD504A70030287A5147003027D
:10870000878A1470030287B3240660030287C6E5D4
:108710001D30E016D20ED20F129BB0D20E12A22143
:108720002001030287C6D20E8014D20EC20F129B04
:10873000B0C20E12A2212001030287C6C20E02A2FD
:108740004EE51EB4030122E51E24FE600804700AF3
:108750007549028008754901800375490374017EDB
:1087600000A849088005C333CE33CED8F9FFEF55B2
:108770001D600BD20ED20F129BE5D20E8009D20ED5
:10878000C20F129BE5C20E02A230E51D7F0730E545
:108790000812A02CEF4408800612A02CEF54F7FD1D
:1087A0007F0702A0F5E51D30E404D20E8002C20E60
:1087B00002A061E51EB4030EE51D30E604D20E8072
:1087C00002C20E12A25D22900034E020E60302886D
:1087D0004EE0C313541FC394105008E0C313541F3A
:1087E000FF80027F108F65E56570028013E565C329
:1087F00094014051900030E078A6F6E565B401059B
:10880000128B2EC322900031E078A7F618E6FE9076
:108810000036E0FBEBAC06FD7902E9C39565501A22
:10882000128B15E0FFE924FEFBE434FFFAED2BF593
:1088300082EC3AF583EFF00980E0128B2E78A7E600
:1088400030E702D322900034E04440F080479000AB
:1088500034E030E74078A7E6547FFFC3941050021D
:1088600080027F108F6578A6E6FE900036E0FDACB2
:1088700006E4F9E9C395655012ED29F582E43CF56B
:1088800083E0FF128B15EFF00980E8128B2E900029
:1088900034E04480F0C322E51224FE6026146040D8
:1088A00024E2700302893414700302894224216097
:1088B0000302895E200B06751900751A12129C823C
:1088C000028960200B14852882852783740393FE18
:1088D000740293FDEEF519EDF51A129A09028960FA
:1088E000200B4CE51314602014602514603F24D144
:1088F000602624E2602224507033755CA3755DC24B
:10890000751900751A048027755CA3755DC6800E05
:1089100085475C85485D8006755CA4755D9E855DB8
:1089200082855C83E493751900F51A8002C32212D4
:10893000A525802C200B06751900751A0912A1BAFD
:10894000801E200B14855082854F83740893FE741B
:108950000793FDEEF519EDF51A12A5328002C32238
:10896000D32220120512A53F80F8C2AFC28CC28D5F
:10897000900002E030E4F9900002E054EFF0E4F5FA
:108980008CF58AD28CF55412A10C8005C333CE33FA
:10899000CED8F9FF7C007D0C1283F1C3E5549FEE25
:1089A0006480F8748098501A12A53F208D079000BB
:1089B00002E030E4F6900002E020E406C28D0554A7
:1089C00080C5C28CC28DD2AF12A10C8005C333CE3C
:1089D00033CED8F9FF7C007D0C1283F1EF65547023
:1089E00001EE70307F0F12A02CEF54C9FD7F0F12E3
:1089F000A0F5E4900059F09000B9E04402F0900036
:108A000058E0440CF000000000E054F3F09000B98E
:108A1000E054FDF022E54D6523FEE54E6524FFE5BB
:108A20003E5EF542E53F5FF543E4F54C74017E00A0
:108A3000A84C088005C333CE33CED8F9F54B8E4A07
:108A4000E542554AFEE543554B4E6057E54D554AC4
:108A5000FEE54E554B4E6021E54B4224E54A42234C
:108A6000E54CC394085009E54BF4786E56F6802C1B
:108A7000E54AF4786F56F68023E54BF4FFE54AF4B7
:108A8000FEEF5224EE5223E54CC394085008786E52
:108A9000E6454BF68006E54A786F46F67F2012A140
:108AA000238009054CE54CC394104080E54CB4107C
:108AB00002C20422C313FF24DAF582E43400F583F2
:108AC000229000A3F0A3F0E4A3F09000A62290006F
:108AD00053E0540775F00AA4249AF582E434A5F50E
:108AE0008322A3F0A37455F09000A022900095E09B
:108AF0004480F012A53F900A74E022900080F0902C
:108B00000A71E0900093F022900A72E0900081F0E8
:108B1000900A60E022E954032430F582E43400F541
:108B20008322900A73E0900082F0900094229000DB
:108B300037E04401F02274832FF582E43400F5839A
:108B40002274612FF582E4340AF583229000AC741C
:108B500028F022AD079000B6E054FDF09000B8E098
:108B600054BFF0E4F563F564ED24FE602504704A1B
:108B7000128B4C74CB128AE27416F0A3F0A37480AB
:108B8000F07416128AC17416F0A3F0A37490F0E486
:108B9000805A128B4C74E0128AE2740BF0A3F0A39B
:108BA0007480F0740B128AC17442F0A37416F0A39F
:108BB0007410F09000B37408F022128B4CA3742050
:108BC000128AE3740EF0A3742AF0E4A3F09000A3D9
:108BD000740E128AC474E1F0A37470F0A37410F0E0
:108BE000E49000A9F0A37438F0E4A3F09000B3F08F
:108BF00022E51030E756E511247E601A1460171440
:108C0000603524037039E51314F549E4F52A128E12
:108C10006EE6F52B802BE51F25E02451F582E43428
:108C2000A5AD82FC128E8B129D15E511B4830385D0
:108C30002A2BE4F52A800AE4F52A752B018002C369
:108C400022751900751A02755E008010E511640125
:108C50007038200D0CF519751A02F55E128E3B80E6
:108C60002BE51314F549E52A30E70BE52B04FF1239
:108C70008E6EA6078005128E6EA62BE54960034313
:108C80001F10128E95128E498002C322D322E51046
:108C900020E703028D14E511247F24FD5002807229
:108CA000E512FF703D200D2C755EFF755FA47560A9
:108CB000F23000189000D9E0C454037007F519751C
:108CC0001A108052751900751A18804A75190075A6
:108CD0001A088042E51C2560F560E51B355FF55FED
:108CE0008034BFFF02C322751900751A02E5121401
:108CF00025E0FFE513142FF54975F002A424F2F9DD
:108D000074A435F0FCAD01128E8B129D15128E38B5
:108D10008004C322C322D3227581E8028D590280C8
:108D200012E493A3F8E493A34003F68001F208DF72
:108D3000F48029E493A3F85407240CC8C333C45423
:108D40000F4420C8834004F456800146F6DFE480D7
:108D50000B010204081020408090A54BE47E019393
:108D600060BCA3FF543F30E509541FFEE493A360A9
:108D7000010ECF54C025E060A840B8E493A3FAE404
:108D800093A3F8E493A3C8C582C8CAC583CAF0A355
:108D9000C8C582C8CAC583CADFE9DEE780BEE5125E
:108DA00024FE605C047070E51364017051786D7688
:108DB000019000FEE07870F69000FFE008F6900069
:108DC000FEE0FE9000FFE0FDED8E44F545E4F54643
:108DD0007868E6FFC3940A500280027F0AE546C322
:108DE0009F50101292C1E0FF74732546F8A6070544
:108DF0004680DD755800755900755A6D800BC32289
:108E0000755800755900755A7D755B107B007A00A6
:108E1000792A129F1A8002C3221292ACD322854172
:108E20008285408375F005E546028403FFC3E6FEB4
:108E30006480F8EF64809822755E00755F0075604D
:108E40002A22F582E43540F58312841F02845112F0
:108E50008390FFE54675F005A422E54925E02494BA
:108E6000253AF822751900751A01755E0022E51F72
:108E700025E024942549F822E54975F003A422E56C
:108E80001FC45403F5462469F8E6227B007A007972
:108E90002A755A022285418285408322E51054605A
:108EA000F5497052200A44F51BF51CE51112842B7C
:108EB0008EE8008EE5018EE2038ED3058ECF068EFE
:108EC000DF088ED9098EDC0A8ED60B00008F16C201
:108ED0000B802002A0C6029CE5029CB5029FBC024A
:108EE000A1F102997C029B430296B7E51124FA7026
:108EF00025D20B028897E549B4200F200A05E4F536
:108F00001BF51CA20A920B02970CE549B44007A27C
:108F10000A920B029085C322E51224FE600C0470B5
:108F20006E1292EE7A00796D805EE52A6401705DC2
:108F3000E52B7022E52CB4FE1DE52DC3940A7F0AB3
:108F40005002AF2D7868A6079000FEE52EF0900045
:108F5000FFE52FF0802BE52BFEE52C8E44F545E553
:108F60002DC3940C7F0C5002AF2D8F49E4F546E5DC
:108F700046C39549500B742E1292BCEFF005468003
:108F8000EE1292EE7A00797D129F1A8004C322C3FA
:108F900022D3229000F474BDF0A3749FF0A3745AFE
:108FA000F090005FE04480F090A555E493FFC36427
:108FB0008094804006742D9FFF800A90A555E4930D
:108FC000F404242DFFEFF4543F24099000F9F090AD
:108FD000A556E493FFC3648094804006742D9FFFE0
:108FE000800A90A556E493F404242DFFEFF4543F37
:108FF0009000FAF0D203E5412406F582E43540F50D
:1090000083129D5A9000F8E04410F022EFD3940FA1
:109010005026EF30E00DC313FE128AB7E054F0443F
:1090200001800CEFC313FE128AB7E0540F4410FC0A
:1090300074DA2E128AB9ECF0EDD3940F5020ED3093
:10904000E00A128AB4E054F044028009ED128AB4B6
:10905000E0540F4420FE74DA2F128AB9EEF0EBD3FD
:10906000940F5020EB30E00A128AB4E054F044032D
:109070008009EB128AB4E0540F4430FE74DA2F12E8
:109080008AB9EEF022200B4E1292B2D3E51794105B
:10909000E5169400500885161985171A8002C32218
:1090A000E51030E729E5116402704FF5448513455A
:1090B000F546C3E546951AE4951950101292C1E0A1
:1090C000FF742A2546F8A607054680E6D322E51157
:1090D00064017026D322E5116401701EF5448513E6
:1090E00045F546C3E546951AE49519500B742A12C6
:1090F00092BCEFF0054680EBD322C322300E4930FC
:109100000F17129D7F400774319556FF8007E55673
:10911000F4042431FF8F578015129D7F400774257A
:109120009556FF8007E556F4042425FF8F57E55533
:109130002411FF12A02CEF54C0FFE557543F4FFD00
:10914000E5552411FF02A0F5129D7FE55640052448
:1091500010FF8008F404FFC374109FFF8F57129D07
:1091600087E054C0FFE557543F4FFF129D87EFF053
:1091700022E51030E71DE511B48116AF1FE51DA8EB
:1091800007088002C313D8FC5401F52A128E6480AC
:1091900012C322E5116401703F200D0CF519751AF8
:1091A00001F55E128E3B8032E52A6011AF1F74011B
:1091B000A807088002C333D8FC421D8010AF1F747B
:1091C00001A807088002C333D8FCF4521D128E9503
:1091D000A3A3A3128E498002C322D322E4F546AB97
:1091E0005EAA5FA960900001128E4F24D7F582E439
:1091F00034A5F583E493B50714900002128E4F2432
:10920000D6F582E434A5F583E4936F60070546E55F
:1092100046B409CBE5296015E546B409047549FF54
:1092200022128E5324DAF582E434A58012E546B486
:109230000903754606128E5324D9F582E434A5F548
:1092400083E493F549227B007A0079947D0C12A087
:109250007B789476F60876F678987614087614E497
:10926000789EF608F690A5529378A0F690A556E45D
:109270009378A2F690A55CE49378A5F6751D20E49A
:10928000F51F129D45751F10129D54751F02129DEA
:1092900045751F12129D54751F05129D45751F15AA
:1092A00085418285408312841F028451751900759F
:1092B0001A10755E00755F0075602A222546F8E673
:1092C000FFE5452546F582E43544F58322E51C2576
:1092D00060F560E51B355FF55F22853C82853B8349
:1092E000E493FE740193F5828E8374019322755882
:1092F000FF755900755A2A755B107B002290000497
:109300007403F0900006E022E510541FF549222076
:109310000705C28C12A1E0129F9F129898900061DD
:10932000E03001094401F0E054FDF0800754FEF004
:10933000E04402F07B007A00796D7D1012A07BE59D
:109340003C2407129D6B129D5AC20474FFF523F54D
:1093500024E4F518F53DFB7A0079697D0412A07BC1
:10936000129246300903128F9390005AE054FBF09A
:1093700022E51E64037019E51D30E60A531DBFC2C5
:109380000E12A25D8037431D40D20E12A25D803CBA
:10939000E51E24FE600D24FE600E24037033754923
:1093A0000480087549028003754908E51D55496028
:1093B00010E549F4521DD20EC20F129BE5C20E8079
:1093C0000DE549421DD20ED20F129BE5D20E12A21C
:1093D0003022E514FF128E95740F93FC7410932FB6
:1093E000F582E43CF583E493FF540FF549EFC45450
:1093F0000FF51FE54924FC60311460272402703109
:10940000E51224FE600F24FB601224067023A20CD8
:10941000920D029171A20C920D028BF1A20C920D91
:109420000299C3A20C920D0297AFA20C920D028C6E
:109430008EC322E05470F0E054F24402F090000831
:109440007401F022AF547E00C3E51A9FF51AE519A6
:109450009EF519EF251CF51CEE351BF51BE51A458D
:109460001922751805900006E054F022E4900004DB
:10947000F0E51822AB5EAA5FA9608546827583007D
:1094800022900007E04401F022D3E51A9410E51978
:10949000940022786D7601754606746D2546F8E4D1
:1094A000F60546E546B410F29000FEE0FE9000FF9F
:1094B000E0FDED8E44F5459000FEE07870F69000FA
:1094C000FFE008F6E4F5467868E6FFC3940A500228
:1094D00080027F0AE546C39F5018E5452546F58280
:1094E000E43544F583E0FF74732546F8A607054686
:1094F00080D522300E24C3E55664809480400774E2
:10950000309556FF8007E556F4042430FF8F57E569
:1095100055240812954124088022C3E5566480949E
:1095200080400774219556FF8007E556F4042421F6
:10953000FF8F57E555240A129541240AFF12A0F522
:1095400022FF12A02CEF54C0FFE557543F4FFDE51A
:109550005522851546128E1E740C93F54930E7028C
:10956000C322AF13E549540FFEEFD39E40012212F0
:109570008E1E740D935480F549EF7016E5499000E6
:109580000470030480027402F0900006E054BFF0FF
:109590008014E54990000470030480027402F09086
:1095A0000006E04440F0E4900004F0D322C2AF1281
:1095B000A10C8005C333CE33CED8F9FF7C097DC41E
:1095C0001283F1AD07AC06C3E49DFDE49CFCC28CA4
:1095D000F58C8D8AC28DD28C208D0512A53F80F826
:1095E000C28CC28DE4F58CF58A7F0712A02CEF5453
:1095F000F3FD7F0712A0F57F0F12A02CEF54F7FDAB
:109600007F0F12A0F5D2AF22900059E054F0F02065
:109610000A03300D21900058E0300D0544C0F08061
:1096200005547F4440F0900059E04401F0200B0FB6
:10963000E04406F08009900058E0448054BFF030C8
:109640000B17900059E0300C054404F080034408E7
:10965000F0900057E04480F022900057E0547FF0F3
:1096600022900059E0540FF0200A03300D1F9000A3
:1096700058E0300D074430F0A3E0800254DF44107E
:10968000F0200B12900059E04460F08009900058DF
:10969000E0442054EFF0300B16900057E04410F0F7
:1096A000900059E0300C044440F0224480F02290B5
:1096B0000057E054EFF022E510541F1460191460B5
:1096C0001B24027036A206E433F52A900000E03035
:1096D000E22B432A028026E4F52A8021E515547FF7
:1096E000FF7401A807088002C333D8FCF549788DC0
:1096F000567F0060027F018F2A8002C322E4F52B8F
:10970000F519751A02F55E1292B5D3221293086408
:1097100001703D851549E5497007A20B920C029333
:10972000D21292DA65497026200B1AE51124F760EF
:109730000A14600A24097024028D9E02A1CEE4F569
:1097400019F51AD322E51124F77011028F18C322DC
:10975000E549B40207A20B920C028613C32220072C
:109760004DC28C12A1E07F1012A02CEF4402FD7FAD
:109770001012A0F57F0F12A02CEF54F74403FD7FC9
:109780000F12A0F5D20AAF26AE25129E8CE4F56129
:10979000D207F58CF58AD28CC20AC20BC20CC20D5C
:1097A000129661C20AC20BC20CC20D12960822E5C3
:1097B0001030E72EE511247E600F14600E1460094E
:1097C00024037011851E2A800E8005851F2A8007BC
:1097D000752A018002C322751900751A01128E388C
:1097E000801AE511B40115200D0B128E64755F000F
:1097F00075601E8007E5412409128E42D322900035
:10980000C3E0FE9000C2E0FDEDFF53070C530604D9
:10981000EF4E70077547A37548FE22E4B5070BEEBF
:10982000B404077547A475482622EF64084E7007F4
:109830007547A475484E22BE040ABF08077547A4A1
:10984000754876227547A37548DA22128AEC128A87
:10985000FBE4FF900A71E0FEEFC39E500D128B41B6
:10986000E0FE128B36EEF00F80E9128B08600812D2
:109870008B2274B8F080069000947498F090009455
:10988000E030E0057440F08007900094E020E7EDC0
:10989000900095E05480F02220080E7F0412A02C46
:1098A000EF54BFFD7F0412A0F57F1312A02CEF54DC
:1098B000EBFD7F1312A0F57D067F1B12A0F5C20AF7
:1098C000C20BC20CC20D129661C20AC20BC20CC2FC
:1098D0000D1296087F1012A02CEF448054BFFD7F1C
:1098E0001002A0F5128AEC4401128AFB128B086068
:1098F00008128B2274BAF08006900094749AF0904B
:109900000094E030E0047440F022900094E020E7FE
:10991000EEE4FF900A71E0FEEFC39E500D128B360D
:10992000E0FE128B41EEF00F80E9E4900095F0220A
:10993000300E22129D93F404FF8F57E555240DFF3E
:1099400012A02CEF54C0FFE557543F4FFDE55524BE
:109950000DFF02A0F5129D934005243CFF8008F402
:1099600004FFC3743C9FFF8F57129D73E05480FF28
:10997000E557547F4FFF129D73EFF022129308704A
:1099800012E5136401703A300507900000E04404CA
:10999000F0D322E54964027028E5137024E51554DC
:1099A0007FF546B407151292FD54F04420F0E49080
:1099B0000004F0788DE64480F6D322E5467002D3A9
:1099C00022C322E51030E715E511B4810E7F003087
:1099D00003027F018F2A128E648012C322E5116474
:1099E000017022200D0CF519751A01F55E128E3BDF
:1099F0008015E52A6004D2038002C203E5412406F3
:109A0000128E428002C322D322E51C451B7014FB38
:109A10007A00792A755A10AD28AC27129D1512923A
:109A2000B2800C755EFF85275F8528601292CDE5B8
:109A30001C451B7016A20633C4333354C04480FF48
:109A4000A205E433C43354E04FF5312275985075C4
:109A5000D880438780128ACEC083C0829000B5E050
:109A60005407D082D08375F002128403E493F5BAD0
:109A7000128ACEC083C0829000B5E05407D082D055
:109A80008375F002128403740193F5AA228F55E5C1
:109A900055540FC454F0FF90000EE0540F4FF0E502
:109AA000557F04B4080812A02CEF4402800612A0CF
:109AB0002CEF54FDFD7F0412A0F5E555C39407403B
:109AC000047D408002E4FD7F1912A0F522C205C288
:109AD00006D208D201D209D200751E01753BA575C8
:109AE0003C84853C82853B83740293FE7403938E91
:109AF00040F5417527A27528A4754FA37550B1751F
:109B000051A47552AC0297FE900000E030E1332082
:109B100007307F0F12A02CEF54FE4408FD7F0F1278
:109B2000A0F57F0712A02CEF440CFD7F0712A0F5D3
:109B3000C20AAF26AE25129E8CE4F561F58CF58A3B
:109B4000D28C221293087012E5136401702A30053A
:109B500007900000E054FBF0D322E549640270183E
:109B6000E5137014E515547FF546B4070512A17B83
:109B7000D322E5467002D322C322AB07AA06EFF434
:109B80009000C4F0EAF4F9A3F09000C6EDF0ECA365
:109B9000F09000C8EFF0AF02EAA3F0EBF49000E41D
:109BA000F0A3E9F0300E089000E2EBF0A3EFF02212
:109BB000300E197F0F300F0812A02CEF44088006DA
:109BC00012A02CEF54F7FD7F0F02A0F590005BE090
:109BD000300F094480F0A3E04480F022547FF0A3CA
:109BE000E0547FF022300E197F0F300F0812A02CA6
:109BF000EF4440800612A02CEF54BFFD7F0F02A05F
:109C0000F590005DE0300F094440F0A3E04440F0DF
:109C10002254BFF0A3E054BFF022EF24FE601124D1
:109C2000FE601424037020129C48448054BF8011AD
:109C3000129C48543F800A7F1012A02CEF444054DD
:109C40007FFD7F1012A0F5227F1012A02CEF22754D
:109C500025FD75268F753EFD753F8FA205920EADD1
:109C60003FAC3EAF26AE25129B7AE526523FE52556
:109C7000523E78667603E4F55312A20212A0AE02B9
:109C8000A011E51C451B7023FB7A00792A7CA27D7C
:109C900090755A10129D1575328C75330D75347888
:109CA0007535017536027537018006E4F52A752B86
:109CB000011292B22285133DE53D9000006017E04D
:109CC0004402F0E53C240AF582E4353BF583128436
:109CD0001F1284518004E054FDF0788DE630E703D4
:109CE00012A17BD322900000E020E102C322788DF4
:109CF000E630E70312A17B1292DAF549AF15EF6067
:109D00000BC39549500612955240012274692515DE
:109D1000F8A613D3228B558A5689578C588D59E44F
:109D2000FFEFC3955A501D0559E559AC587002050F
:109D30005814F5828C83E493785512A11BEE12839C
:109D4000BD0F80DD22854182854083A3A3A31284B9
:109D50001F12845185418285408312841F028451E1
:109D6000900004F09000057480F022F582E4353B09
:109D7000F58322745B2555F582E43400F58322C314
:109D8000E5566480948022745D2555F582E43400A4
:109D9000F58322C3E55664809480E5562290000442
:109DA0007403F0900007E04408F0E4F546746D2574
:109DB00046F8E690000AF00546E546B410EF129426
:109DC000654410F02290003EE0FF900039E0FD7CF9
:109DD00000EF30E20B90003BE08D828C83F0800935
:109DE0008D828C83E090003BF0EFA2E322AC07EC85
:109DF000540FFE90000EE054F04EF07F04BC0808B3
:109E000012A02CEF4408800612A02CEF54F7FD7F1F
:109E10000412A0F52290000FE0300E0D54FEF0E485
:109E2000FF12A02CEF543F800D4401F0E4FF12A07C
:109E30002CEF448054BFFDE4FF12A0F52290000FE8
:109E4000E0300E0D54FDF07F0212A02CEF543F8045
:109E50000D4402F07F0212A02CEF448054BFFD7F1E
:109E60000212A0F522C0D075D008900010E030E5B5
:109E700018D2049000C3E0FE9000C2E0FDEEF54D64
:109E8000EDF54E9000107420F0D0D022AB07AA065A
:109E90009000E4E0300A11FFEBF4FEEF5EF0A3E087
:109EA000FDEAF4FFED5FF0224BF0A3E0FDED4AF098
:109EB00022E4F5291291DCAF49129A8D128E7FB4FB
:109EC0000204C20E8002D20E129E3DE51FA2E6924F
:109ED0000E02A27BE51E6401701C9000F0E03003CE
:109EE0000B4430F09000F8E04410F02254CFF09092
:109EF00000F8E054EFF022300E14E555240DFF1267
:109F0000A02CEF443FFDE555240DFF02A0F5745B46
:109F10002555129D77E05480F0228B558A5689573B
:109F2000E4FFEFC3955B5014785812A11C1283779D
:109F3000785512A11BEE1283BD0F80E62212A53FB9
:109F4000756707129FD9129ACDE53C2404129D6BC8
:109F5000129D5AC212C207E4F561D2AFD28C22E43C
:109F6000F5291291DCAF49129DED128E7FB40204E7
:109F7000C20E8002D20E129E1530010312A1912250
:109F80007F0F12A02CEF4403FD7F0F12A0F57F106E
:109F900012A02CEF4402FD7F1012A0F50295AD90A7
:109FA0000007740FF0E4129D607401129D6074024A
:109FB000129D609000047403129D6322900000E0E3
:109FC00020E102C322751900751A0174692515F97B
:109FD000E4F55EF55F8960D3229000B4E04402F0BE
:109FE000E4F58EF588900095E0547FF075A80F7524
:109FF000B80F75891122EF4480900098F090009A74
:10A00000E04486F090009AE020E7F9900099E0FFA4
:10A01000229000B6E054CFF0200104E04408F09014
:10A0200000B6E04406F0A3E04405F022EF4480903F
:10A030000098F090009AE04486F090009AE020E7C3
:10A04000F9900099E0FF227F0730110812A02CEF51
:10A050004408800612A02CEF54F7FD7F0712A0F5EC
:10A06000227F07300E0812A02CEF4404800612A0B5
:10A070002CEF54FBFD7F0712A0F5228B548A5589E3
:10A0800056E4FFEFC39D500C785412A11CE41283D8
:10A09000BD0F80EF229000B5E05407FF74017E00F1
:10A0A000A80F0822FF7C007D0C1283F1EF229000A4
:10A0B0001074FFF09000117420F090001274FFF003
:10A0C000E4900013F022E5134480900001F090002A
:10A0D00007E04401F0900000E04401F0D32290003A
:10A0E00098EFF0A3EDF090009AE04486F090009A8B
:10A0F000E020E7F922900098EFF0A3EDF090009AAD
:10A10000E04486F090009AE020E7F9229000B5E064
:10A110005407FF74017E00A8070822FEE475F001D1
:10A1200002840F8F551294937872E64555F6129D6E
:10A130009DE555F4787256F6229000C0E0FEEF30AF
:10A140000A0442068003F452069000C0EEF022E5B5
:10A150005375F06484E5F0700BA202920A7F20121E
:10A16000A139B202229000C0E0FF200A0543074057
:10A1700080035307BF9000C0EFF0221292FD54D02D
:10A18000F0900007E04408F0E4900004F0788DF6C9
:10A19000227529011291DCE549B4FF04D20E800238
:10A1A000C20E12A24E229000047403F0900006E04A
:10A1B00030E006E054F14401F0227B007A00792A75
:10A1C000755A09AD50AC4F129D151292B222E5128C
:10A1D00024FE60070470028002C3221292ACD322D4
:10A1E0007F0F12A02C8F49434934AD497F0F02A045
:10A1F000F5751900751A01755E00755F0075603D93
:10A20000D322754AD8754BF0E54AF58D854B8BD234
:10A210008E229000CAE03010044402F02254FDF077
:10A22000229000CAE0300E044408F02254F7F022D5
:10A230009000CAE0300E044420F02254DFF0229057
:10A2400000B9E0300E0454FDF0224402F0229000E8
:10A2500060E0300E044480F022547FF02290005AD7
:10A26000E0300E044402F02254FDF02290005AE047
:10A27000300E044401F02254FEF02290005AE030E7
:10A280000E044440F02254BFF022D20E02A23F221C
:10A2900012011001000000108C0D7001000001027D
:02A2A0000001BB
:10A2A40009021D01040100803209040000000101BB
:10A2B40000000A2401000166000201020C240201CC
:10A2C40001010002030000000C240202010200024A
:10A2D400030000000924030302030005000924030A
:10A2E4000401010008000A24060509010102020014
:10A2F4000A2406060201410202000A24060702019A
:10A3040001020200072405080106000D24040902C5
:10A31400010702030000000009040100000102001B
:10A3240000090401010101020000072401010101E7
:10A33400001D24020102021007401F00112B00809F
:10A344003E00225600007D0044AC0080BB0009059D
:10A35400010DC400010000072501010000000904EB
:10A3640002000001020000090402010101020000D0
:10A37400072401040101001D240201020210074008
:10A384001F00112B00803E00225600007D0044ACCB
:10A394000080BB000905820DC400010000072501EF
:10A3A400010000000904030001030000000921006A
:0DA3B400010001224500070587031000018C
:10A3C2000403090414034E00550043004C004500E9
:10A3D2004F00200044004600240343005700500071
:10A3E2002000550053004200200044006500760022
:10A3F20069006300650020003F003F00280343001E
:10A402005700500020005500530042002000440035
:10A4120065007600690063006500200023002000CB
:10A42200300031002803430057005000200055003F
:10A43200530042002000440065007600690063007A
:10A442006500200023002000300032002803430072
:10A4520057005000200055005300420020004400E5
:10A46200650076006900630065002000230020007B
:10A4720030003300280343005700500020005500ED
:10A48200530042002000440065007600690063002A
:10A492006500200023002000300034000C0335004A
:08A4A2003000320033004300DA
:10A4AC00050C0901A1018501150025010900090010
:10A4BC007501950281420900950181060601FF098B
:10A4CC000195098106050C09CD09B709B509B695A1
:10A4DC000481060607FF09017508950D8106090020
:05A4EC00950F9102C074
:10A4F200000000800080000000000080008000005A
:08A50200000000800080000051
:10A50C0065020D8C0178000101020000C0D075D0ED
:10A51C000812A2020553D0D022755EFF855C5F85C0
:10A52C005D601292CD22755EFF85515F855260127F
:10A53C0092CD2243A84043B840227F0102A123C1FF
:10A54C00820022222200C20CE61E001E000CE21623
:10A55C00F100010102020323531504FF8457FF8607
:10A56C00F0FF9ED4FF828CFF9371A55D1101FF9FBC
:10A57C005F2182FF9EB10203A582A567FF9C4FFF5E
:10A58C00A54FFFA28AFFA550FF8A15FFA54603D948
:10A59C0003B2036402C8018F03EC03D903B2036452
:10A5AC0002C803F603EC03D903B2036403FB03F6FE
:10A5BC0003EC03D903B203FE03FB03F603EC03D94C
:10A5CC0003FE03FD03F903F303E6001F4000FF0045
:10A5DC002B1101FF003E8002FF00562203FF007D7D
:10A5EC000004FF00AC44050400BB80060001588841
:10A5FC0007050177000801020002C004000582086B
:09A60C00000B060C00160C1800EE
:00000001FF
