:1080000002A0BC02851F029C8F02A08002A0BD02BC
:108010008C4B129D44128869D2077F10129F5630F4
:108020001067900002E030E40AE054EFF0129D8700
:10803000129280900002E030E00A1298FB90000259
:10804000E054FEF0900002E030E50A12958A9000BC
:1080500002E054DFF0900008E030E0067401F01216
:10806000808E900008E030E309129FAD9000087404
:1080700008F030020AE53C2410129B95129B84E51F
:108080003C240D129B95129B8412A0A78091E49032
:108090000004F0900006E020E20302811E1291AF7E
:1080A00075180190000AE0F510E0F511E075120076
:1080B000F513E0FEEE4212E0751400F515E0FEEE59
:1080C0004214E0751600F517E0FEEE4216C20712E4
:1080D0008D515039C3E517951AE51695195006AE1E
:1080E00016AF178004AE19AF1A8E198F1AE51A450C
:1080F000197005751804801BE51030E70575180226
:1081000080037518031291934480F08006129190B9
:108110004420F0900006E054F4440412916A129155
:108120009A6403704C900006E030E1451291B7402C
:10813000057554108003851A541291AFE4F546E595
:1081400046C39554500E90000AE01291A21283B9D2
:10815000054680EB900006129161D207128D5150B6
:108160000A129172700B75180480061291904420C7
:10817000F012919A640260030282201291B74005C6
:108180007554108003851A54E4F546E546C39554AA
:10819000500E1291A212837A90000AF0054680EBED
:1081A0001291934410F0129172705C900006E030CE
:1081B000E03DE054F1440112916AE5546410702AE4
:1081C0001291AF1291934410F0900006E030E00A53
:1081D000E054F1440112916A8010900006E020E220
:1081E0003F900006E030E1E1800C7518048031908A
:1081F0000006E030E108129161E4F5188022900059
:1082000006E030E2A68019D207128D51900006E0F8
:1082100020E004E030E2F5900006E054F14401F083
:1082200012919A6404703DE51030E719900006E061
:1082300020E104E030E2F5900006E05470F0E054F4
:10824000F2440280191291934410F0900006E0204D
:10825000E004E030E2F5900006E054F144011291B0
:108260006AE4F51812919A64057015900006E020F2
:10827000E304E030E2F5900006E054D0F0E4F518B5
:1082800022E5126401600302835FF54612902874B0
:108290001293651560070546E546B402EFE546B45E
:1082A0000202C322E51530E7057549018003E4F5B4
:1082B00049E51030E771751900751A03E511247E40
:1082C000602714603714604B2403705112907A2495
:1082D0008EF8E6F52A12907A248FF8E6F52B1290A4
:1082E0007A2490F8E6F52C803690A146E493F52A9E
:1082F00090A145E493F52B90A144801190A16EE4E8
:1083000093F52A90A16DE493F52B90A16CE493F57D
:108310002C800C752A05E4F52BF52C8002C3227500
:108320005E001290738038E51164017030200914EA
:10833000F519751A0312907A248EF9E4F55EF55F4B
:108340008960801B129028741193F51F129028E504
:10835000822413F582E4358312906B8002C322D30A
:1083600022BB010689828A83E0225002E722BBFEFB
:1083700002E32289828A83E49322BB010CE58229ED
:10838000F582E5833AF583E0225006E92582F8E696
:1083900022BBFE06E92582F8E222E58229F582E584
:1083A000833AF583E49322BB010689828A83F02213
:1083B0005002F722BBFE01F322F8BB010DE5822932
:1083C000F582E5833AF583E8F0225006E92582C874
:1083D000F622BBFE05E92582C8F222EF8DF0A4A8A3
:1083E000F0CF8CF0A428CE8DF0A42EFE22A42582FE
:1083F000F582E5F03583F58322FAE6FB0808E6F915
:1084000025F0F618E6CA3AF622E493FB740193FAD3
:10841000740293F922D083D082F8E493701274012D
:1084200093700DA3A393F8740193F5828883E4738A
:108430007402936860EFA3A3A380DF8A838982E438
:1084400073E51FC4540FF53AE51F540F1424FD5073
:108450004070030284FA1470030284E2240560036E
:1084600002851E7494253AF8E6FF78A0D31290385E
:10847000500F7494253AF8A606D20B853A55029C03
:10848000FED20B853A557494253AF8E6F5560297D4
:1084900059E51EB4030122E51E24FE600804700A9B
:1084A0007549028008754901800375490312904D92
:1084B000E6FF74A02549F8129037500512904DA69A
:1084C00006E54964026005E549B40306D20BD20C07
:1084D0008004D20BC20C853A5512904DE6F5560237
:1084E0008FB3749E253AF8E678A51290365007743B
:1084F0009E253AF8A606D20B8016749C253AF8E61B
:1085000078A41290365007749C253AF8A606C20B40
:10851000853A55749E253AF8E6F55612922122C006
:10852000D075D0080561129E9C8005C333CE33CE32
:10853000D8F97803C333CE33CED8F9FFE561FB7A9F
:10854000006F7001EE703D30053AC28CC2057F07A6
:10855000129DFD8F62E51D30E507E5624408FF804E
:1085600005E56254F7FF8F62E51D30E407E56244DC
:1085700004FF8005E56254FBFF8F62AD627F071246
:108580009EE58076129E9C8005C333CE33CED8F90B
:10859000129EABB50B17EEB50A13201010C28CD289
:1085A00010900000E04480F09000B48049129E9C3E
:1085B0008005C333CE33CED8F9129EAB656170010E
:1085C000EE7037301034C28C7F0F129DFDEF54C90E
:1085D000F562FD7F0F129EE5E4900059F09000B91E
:1085E000E04402F0900058E0440CF000000000E08D
:1085F00054F3F09000B9E054FDF0D0D022E51E24F1
:10860000FE603A1470030286A114606224036003C2
:108610000286B47F011286C378981286B5D20BD237
:108620000C75550178991286B5E51D30E206D20B1E
:10863000D20C8004D20BC20C129A0F805F7F021200
:108640009A44D20BC20CE4F55578961286BCD20B34
:10865000C20C75550178971286BCE51D30E106D233
:108660000BD20C8004D20BC20C129A0F802E7F0406
:108670001286C3789AE6F556128FB3D20BD20C75D8
:108680005501789BE6F556128FB3E51D30E306D20F
:108690000BD20C8004D20BC20C129A0FC20B02A098
:1086A00062D20B12A062E51D30E604D20B8002C23A
:1086B0000B12A05322E6F556128FB322E6F556129E
:1086C0008FB322129A44D20BD20CE4F555229000BB
:1086D00034E020E603028755E0C313541FC394100F
:1086E0005008E0C313541FFF80027F108F65E565BB
:1086F00070028013E565C394014051900030E0782A
:10870000A6F6E565B40105128B88C322900031E01E
:1087100078A7F618E6FE900036E0FBEBAC06FD7994
:1087200002E9C39565501A128B6FE0FFE924FEFB46
:10873000E434FFFAED2BF582EC3AF583EFF0098093
:10874000E0128B8878A7E630E702D322900034E06D
:108750004440F08047900034E030E74078A7E6548A
:108760007FFFC39410500280027F108F6578A6E6C9
:10877000FE900036E0FDAC06E4F9E9C395655012C1
:10878000ED29F582E43CF583E0FF128B6FEFF009F1
:1087900080E8128B88900034E04480F0C322E51218
:1087A00024FE602614604024E2700302883B1470AB
:1087B0000302884924216003028865200806751990
:1087C00000751A12129AAC02886720081485288254
:1087D000852783740393FE740293FDEEF519EDF57E
:1087E0001A12983702886720084CE5131460201489
:1087F000602514603F24D1602624E260222450705A
:1088000033755CA3755DAC751900751A0480277506
:108810005CA3755DB0800E85475C85485D800675FC
:108820005CA4755D88855D82855C83E49375190021
:10883000F51A8002C32212A08D802C20080675191B
:1088400000751A09129FC1801E2008148550828568
:108850004F83740893FE740793FDEEF519EDF51A36
:1088600012A09A8002C322D32220100512A0A78052
:10887000F8C2AFC28CC28D900002E030E4F99000E3
:1088800002E054EFF0E4F58CF58AD28CF554129F97
:10889000138005C333CE33CED8F9FF7C007D0C1294
:1088A00083DBC3E5549FEE6480F8748098501A12FD
:1088B000A0A7208D07900002E030E4F6900002E0CF
:1088C00020E406C28D055480C5C28CC28DD2AF1281
:1088D0009F138005C333CE33CED8F9FF7C007D0CC7
:1088E0001283DBEF65547001EE70307F0F129E3300
:1088F000EF54C9FD7F0F129EFCE4900059F09000E8
:10890000B9E04402F0900058E0440CF00000000090
:10891000E054F3F09000B9E054FDF022E51F142478
:10892000FD503A70030289AA146071147003028921
:10893000B8240660030289CBE51D30E011D20BD2CA
:108940000C1299DA2000030289CBD20B800CD20BD7
:10895000C20C1299DA300073C20B02A044E51EB4B7
:10896000030122E51E24FE600804700A7549028096
:1089700008754901800375490374017E00A8490800
:108980008005C333CE33CED8F9FFEF551D6006D234
:108990000BD20C8004D20BC20C029A0FE51D30E5FD
:1089A00004D20B8002C20B029E4EE51D30E404D2BD
:1089B0000B8002C20B029E68E51EB4030EE51D305B
:1089C000E604D20B8002C20B12A05322E51030E75E
:1089D0005CE511247E601A14601714603B24037058
:1089E0003FE51314F549E4F52A129061E6F52B8072
:1089F00031E51F25E024C0F582E434A0AD82FC7B84
:108A0000007A00792A755A02129B3FE511B483035C
:108A1000852A2BE4F52A800AE4F52A752B018002C9
:108A2000C322751900751A02755E008010E5116485
:108A3000017038200A0CF519751A02F55E12907350
:108A4000802BE51314F549E52A30E70BE52B04FFED
:108A5000129061A6078005129061A62BE54960037C
:108A6000431F1012908D12906D8002C322D322E515
:108A70004D6523FEE54E6524FFE53E5EF542E53F8C
:108A80005FF543E4F54C74017E00A84C088005C3F3
:108A900033CE33CED8F9F54B8E4AE542554AFEE542
:108AA00043554B4E6057E54D554AFEE54E554B4EEE
:108AB0006021E54B4224E54A4223E54CC39408502B
:108AC00009E54BF4786E56F6802CE54AF4786F563B
:108AD000F68023E54BF4FFE54AF4FEEF5224EE5214
:108AE00023E54CC394085008786EE6454BF68006A3
:108AF000E54A786F46F67F20129F2A8009054CE5EB
:108B00004CC394104080E54CB41002C20222C3133F
:108B1000FF24DAF582E43400F583229000A3F0A369
:108B2000F0E4A3F09000A622900053E0540775F003
:108B30000AA42408F582E434A1F58322A3F0A374E7
:108B400055F09000A022900095E04480F012A0A77C
:108B5000900A74E022900080F0900A71E0900093F7
:108B6000F022900A72E0900081F0900A60E022E921
:108B700054032430F582E43400F58322900A73E034
:108B8000900082F090009422900037E04401F0229F
:108B900074832FF582E43400F5832274612FF5820B
:108BA000E4340AF583229000AC7428F022AD0790DB
:108BB00000B6E054FDF09000B8E054BFF0E4F56377
:108BC000F564ED24FE602504704A128BA674CB1266
:108BD0008B3C7416F0A3F0A37480F07416128B1BF8
:108BE0007416F0A3F0A37490F0E4805A128BA6746C
:108BF000E0128B3C740BF0A3F0A37480F0740B12A2
:108C00008B1B7442F0A37416F0A37410F09000B3A1
:108C10007408F022128BA6A37420128B3D740EF000
:108C2000A3742AF0E4A3F09000A3740E128B1E74B8
:108C3000E1F0A37470F0A37410F0E49000A9F0A325
:108C40007438F0E4A3F09000B3F0227581E8028C50
:108C50008C028012E493A3F8E493A34003F680010E
:108C6000F208DFF48029E493A3F85407240CC8C366
:108C700033C4540F4420C8834004F456800146F6A0
:108C8000DFE4800B010204081020408090A0B8E4CB
:108C90007E019360BCA3FF543F30E509541FFEE4FE
:108CA00093A360010ECF54C025E060A840B8E493C0
:108CB000A3FAE493A3F8E493A3C8C582C8CAC58302
:108CC000CAF0A3C8C582C8CAC583CADFE9DEE78087
:108CD000BEE51224FE605C047070E51364017051FF
:108CE000786D76019000FEE07870F69000FFE00865
:108CF000F69000FEE0FE9000FFE0FDED8E44F545AD
:108D0000E4F5467868E6FFC3940A500280027F0AC1
:108D1000E546C39F5010129113E0FF74732546F887
:108D2000A607054680DD755800755900755A6D8097
:108D30000BC322755800755900755A7D755B107B01
:108D4000007A00792A129D218002C3221290FED35C
:108D500022E5105460F5497052200744F51BF51CBC
:108D6000E5111284158D9D008D9A018D97038D88D4
:108D7000058D84068D94088D8E098D910A8D8B0B3F
:108D800000008DCBC2088020029ECD029B0F029A6C
:108D9000DF029DC3029FE70297F002996D029441A2
:108DA000E51124FA7025D20802879EE549B4200F08
:108DB000200705E4F51BF51CA2079208029496E52E
:108DC00049B44007A2079208028F3CC322E5103045
:108DD000E71DE511B48116AF1FE51DA80708800245
:108DE000C313D8FC5401F52A1290578012C322E510
:108DF000116401704F200A0CF519751A01F55E1205
:108E000090738042E52A6011AF1F7401A8070880A3
:108E100002C333D8FC421D8010AF1F7401A807089D
:108E20008002C333D8FCF4521DE51F64056005E5DC
:108E30001FB40405300502D32212908DA3A3A31200
:108E4000906D8002C322D322E51224FE600C0470D0
:108E50006E1291407A00796D805EE52A6401705D42
:108E6000E52B7022E52CB4FE1DE52DC3940A7F0A84
:108E70005002AF2D7868A6079000FEE52EF0900016
:108E8000FFE52FF0802BE52BFEE52C8E44F545E524
:108E90002DC3940C7F0C5002AF2D8F49E4F546E5AD
:108EA00046C39549500B742E12910EEFF005468083
:108EB000EE1291407A00797D129D218004C322C375
:108EC00022D322EFD3940F5026EF30E00DC313FED0
:108ED000128B11E054F04401800CEFC313FE128B8F
:108EE00011E0540F4410FC74DA2E128B13ECF0EDE9
:108EF000D3940F5020ED30E00A128B0EE054F04472
:108F0000028009ED128B0EE0540F4420FE74DA2F1C
:108F1000128B13EEF0EBD3940F5020EB30E00A12DB
:108F20008B0EE054F044038009EB128B0EE0540FDB
:108F30004430FE74DA2F128B13EEF02220084E120A
:108F40009104D3E5179410E516940050088516197E
:108F500085171A8002C322E51030E729E511640263
:108F6000704FF544851345F546C3E546951AE495DB
:108F7000195010129113E0FF742A2546F8A6070530
:108F80004680E6D322E51164017026D322E5116400
:108F900001701EF544851345F546C3E546951AE470
:108FA0009519500B742A12910EEFF0054680EBD301
:108FB00022C322300B49300C17129BA94007743191
:108FC0009556FF8007E556F4042431FF8F5780152E
:108FD000129BA9400774259556FF8007E556F404B7
:108FE0002425FF8F57E5552411FF129E33EF54C0FF
:108FF000FFE557543F4FFDE5552411FF029EFC123B
:109000009BA9E55640052410FF8008F404FFC374B3
:10901000109FFF8F57129BB1E054C0FFE557543F9C
:109020004FFF129BB1EFF02285418285408375F09E
:1090300005E5460283EDFFC3E6FE6480F8EF648039
:10904000982212837AFFE54675F005A422E54925AA
:10905000E02494253AF822751900751A01755E000E
:1090600022E51F25E024942549F822F5831284097E
:1090700002843B755F0075602A22E54975F003A400
:1090800022E51FC45403F5462469F8E6228541828F
:1090900085408322E4F546AB5EAA5FA9609000019B
:1090A0001290422445F582E434A1F583E493B50798
:1090B000149000021290422444F582E434A1F58316
:1090C000E4936F60070546E546B409CBE5296015D2
:1090D000E546B409047549FF221290462448F582FA
:1090E000E434A18012E546B40903754606129046A1
:1090F0002447F582E434A1F583E493F549227519F8
:1091000000751A10755E00755F0075602A2225468D
:10911000F8E6FFE5452546F582E43544F58322E58A
:109120001C2560F560E51B355FF55F22853C828577
:109130003B83E493FE740193F5828E837401932242
:109140007558FF755900755A2A755B107B0022907F
:1091500000047403F0900006E022E510541FF54966
:1091600022E05470F0E054F24402F09000087401E0
:10917000F022AF547E00C3E51A9FF51AE5199EF55B
:1091800019EF251CF51CEE351BF51BE51A451922B8
:10919000751805900006E054F022E4900004F0E514
:1091A0001822AB5EAA5FA960854682758300229073
:1091B0000007E04401F022D3E51A9410E519940069
:1091C00022786D7601754606746D2546F8E4F6053D
:1091D00046E546B410F29000FEE0FE9000FFE0FD90
:1091E000ED8E44F5459000FEE07870F69000FFE0CB
:1091F00008F6E4F5467868E6FFC3940A5002800258
:109200007F0AE546C39F5018E5452546F582E435BB
:1092100044F583E0FF74732546F8A607054680D51C
:1092200022300B24C3E55664809480400774309547
:1092300056FF8007E556F4042430FF8F57E5552488
:109240000812926F24088022C3E5566480948040FF
:109250000774219556FF8007E556F4042421FF8FFB
:1092600057E555240A12926F240AFF129EFC22FF32
:10927000129E33EF54C0FFE557543F4FFDE5552292
:10928000200505C28C129F40129DA6129675900073
:1092900061E03000094401F0E054FDF0800754FE25
:1092A000F0E04402F07B007A00796D7D10129E821E
:1092B000E53C2407129B95129B84C20274FFF523A0
:1092C000F524E4F518F53DFB7A0079697D04129EDA
:1092D000821296C190005AE054FBF0228515461286
:1092E0009028740C93F54930E702C322AF13E54987
:1092F000540FFEEFD39E400122129028740D935418
:1093000080F549EF7016E54990000470030480026F
:109310007402F0900006E054BFF08014E54990001C
:109320000470030480027402F0900006E04440F0F0
:10933000E4900004F0D322C2AF129F138005C33320
:10934000CE33CED8F9FF7C097DC41283DBAD07ACE8
:1093500006C3E49DFDE49CFCC28CF58C8D8AC28D15
:10936000D28C208D0512A0A780F8C28CC28DE4F5A6
:109370008CF58A7F07129E33EF54F3FD7F07129E10
:10938000FC7F0F129E33EF54F7FD7F0F129EFCD22D
:10939000AF22900059E054F0F0200703300A2190EA
:1093A0000058E0300A0544C0F08005547F4440F086
:1093B000900059E04401F020080FE04406F08009D5
:1093C000900058E0448054BFF0300817900059E0F6
:1093D0003009054404F080034408F0900057E0444D
:1093E00080F022900057E0547FF022900059E05422
:1093F0000FF0200703300A1F900058E0300A07449E
:1094000030F0A3E0800254DF4410F02008129000F6
:1094100059E04460F08009900058E0442054EFF097
:10942000300816900057E04410F0900059E03009E1
:10943000044440F0224480F022900057E054EFF0C2
:1094400022E510541F14601914601B24027036A208
:1094500004E433F52A900000E030E22B432A028036
:1094600026E4F52A8021E515547FFF7401A807083A
:109470008002C333D8FCF549788D567F0060027FA7
:10948000018F2A8002C322E4F52BF519751A02F523
:109490005E129107D32212915A6401703D851549DD
:1094A000E5497007A20892090297A512912C654917
:1094B000702620081AE51124F7600A14600A2409AE
:1094C0007024028CD1029FD5E4F519F51AD322E558
:1094D0001124F77011028E48C322E549B40207A295
:1094E000089209028281C322E51EB40314E51D30EF
:1094F000E607531DBFC20B8005431D40D20B02A0DF
:1095000053E51E24FE600D24FE600E2403702975B1
:10951000490480087549028003754908E51D5549CD
:10952000600BE549F4521DD20BC20C8008E549429C
:109530001DD20BD20C129A0F22E51030E72BE51149
:10954000247E600F14600E14600924037011851EC0
:109550002A800E8005851F2A8007752A018002C394
:1095600022129057129073801FE511B4011A200A3D
:109570000B129057755F0075601E800CE541240941
:10958000F582E4354012906BD32220054DC28C1237
:109590009F407F10129E33EF4402FD7F10129EFC0D
:1095A0007F0F129E33EF54F74403FD7F0F129EFC92
:1095B000D207AF26AE25129CB6E4F561D205F58C34
:1095C000F58AD28CC207C208C209C20A1293EBC242
:1095D00007C208C209C20A129392229000C3E0FE99
:1095E0009000C2E0FDEDFF53070C530604EF4E70F0
:1095F000077547A37548E822E4B5070BEEB40407E6
:109600007547A475481022EF64084E70077547A48B
:1096100075483822BE040ABF08077547A47548601C
:10962000227547A37548C422128B46128B55E4FF5E
:10963000900A71E0FEEFC39E500D128B9BE0FE126C
:109640008B90EEF00F80E9128B626008128B7C74B5
:10965000B8F080069000947498F0900094E030E0A8
:10966000057440F08007900094E020E7ED900095AD
:10967000E05480F02220060E7F04129E33EF54BF88
:10968000FD7F04129EFC7F13129E33EF54EBFD7F8F
:1096900013129EFC7D067F1B129EFCC207C208C2ED
:1096A00009C20A1293EBC207C208C209C20A129386
:1096B000927F10129E33EF448054BFFD7F10029EB4
:1096C000FC7B007A0079947D0C129E82789476F669
:1096D0000876F67898761408761490A0C1E493780A
:1096E000A0F690A0C5E49378A2F6E4F51DF51F124C
:1096F0009B6F751F10129B7E751F02129B6F751F4B
:109700001285418285408312840902843B128B4674
:109710004401128B55128B626008128B7C74BAF074
:109720008006900094749AF0900094E030E0047405
:1097300040F022900094E020E7EEE4FF900A71E010
:10974000FEEFC39E500D128B90E0FE128B9BEEF04D
:109750000F80E9E4900095F022300B22129BBDF4BB
:1097600004FF8F57E555240DFF129E33EF54C0FFC1
:10977000E557543F4FFDE555240DFF029EFC129B1B
:10978000BD4005243CFF8008F404FFC3743C9FFFE8
:109790008F57129B9DE05480FFE557547F4FFF1277
:1097A0009B9DEFF022E514FF12908D740F93FC74D3
:1097B00010932FF582E43CF583E493FF540FF549B1
:1097C000EFC4540FF51FE54924FB601B2402701EF3
:1097D000E51224FE600A047015A209920A028DCDDA
:1097E000A209920A0289CCA209920A029539C322DF
:1097F00012915A7012E5136401703A300307900019
:1098000000E04404F0D322E54964027028E51370B7
:1098100024E515547FF546B4071512914F54F044D2
:1098200020F0E4900004F0788DE64480F6D322E541
:10983000467002D322C322E51C451B7014FB7A003C
:10984000792A755A10AD28AC27129B3F12910480DB
:109850000C755EFF85275F85286012911FE51C450A
:109860001B7016A20433C4333354C04480FFA203D8
:10987000E433C43354E04FF5312275985075D880E5
:10988000438780128B28C083C0829000B5E05407C4
:10989000D082D08375F0021283EDE493F5BA128B77
:1098A00028C083C0829000B5E05407D082D0837571
:1098B000F0021283ED740193F5AA228F55E55554F9
:1098C0000FC454F0FF90000EE0540F4FF0E5557FA9
:1098D00004B40808129E33EF44028006129E33EF50
:1098E00054FDFD7F04129EFCE555C3940740047DA2
:1098F000408002E4FD7F19129EFC22900000E030BF
:10990000E1332005307F0F129E33EF54FE4408FDF3
:109910007F0F129EFC7F07129E33EF440CFD7F07E2
:10992000129EFCC207AF26AE25129CB6E4F561F587
:109930008CF58AD28C22C203C204D206D200751ED4
:1099400001753BA0753CF2853C82853B8374029394
:10995000FE7403938E40F5417527A27528A4754FB8
:10996000A375509A7551A47552960295DB12915ABF
:109970007012E5136401702A300307900000E05470
:10998000FBF0D322E54964027018E5137014E51565
:10999000547FF546B40705129F82D322E546700234
:1099A000D322C322AB07AA06EFF49000C4F0EAF476
:1099B000F9A3F09000C6EDF0ECA3F09000C8EFF032
:1099C000AF02EAA3F0EBF49000E4F0A3E9F0300B6F
:1099D000089000E2EBF0A3EFF022300B197F0F307C
:1099E0000C08129E33EF44088006129E33EF54F7A2
:1099F000FD7F0F029EFC90005BE0300C094480F07C
:109A0000A3E04480F022547FF0A3E0547FF02230A2
:109A10000B197F0F300C08129E33EF444080061262
:109A20009E33EF54BFFD7F0F029EFC90005DE0303F
:109A30000C094440F0A3E04440F02254BFF0A3E0FE
:109A400054BFF022EF24FE601124FE601424037042
:109A500020129A72448054BF8011129A72543F802F
:109A60000A7F10129E33EF4440547FFD7F10129EF8
:109A7000FC227F10129E33EF227525FD75268F750F
:109A80003EFD753F8FA203920BAD3FAC3EAF26AEBD
:109A9000251299A4E526523FE525523E78667603C5
:109AA000E4F553129FF8129EB5029E18E51C451B63
:109AB0007023FB7A00792A7CA27D90755A10129B44
:109AC0003F75328C75330D753478753501753601F7
:109AD0007537018006E4F52A752B01129104228561
:109AE000133DE53D9000006017E04402F0E53C24A2
:109AF0000AF582E4353BF58312840912843B800425
:109B0000E054FDF0788DE630E703129F82D3229077
:109B10000000E020E102C322788DE630E703129FC7
:109B20008212912CF549AF15EF600BC39549500691
:109B30001292DC40012274692515F8A613D3228BFA
:109B4000558A5689578C588D59E4FFEFC3955A5062
:109B50001D0559E559AC587002055814F5828C83DF
:109B6000E4937855129F22EE1283A70F80DD2285A1
:109B70004182854083A3A3A312840912843B8541BB
:109B80008285408312840902843B900004F0900097
:109B9000057480F022F582E4353BF58322745B2561
:109BA00055F582E43400F58322C3E5566480948041
:109BB00022745D2555F582E43400F58322C3E55611
:109BC00064809480E556229000047403F0900007AE
:109BD000E04408F0E4F546746D2546F8E690000A86
:109BE000F00546E546B410EF1291934410F0229030
:109BF000003EE0FF900039E0FD7C00EF30E20B908A
:109C0000003BE08D828C83F080098D828C83E09014
:109C1000003BF0EFA2E322AC07EC540FFE90000EE5
:109C2000E054F04EF07F04BC0808129E33EF440865
:109C30008006129E33EF54F7FD7F04129EFC2290A3
:109C4000000FE0300B0D54FEF0E4FF129E33EF5492
:109C50003F800D4401F0E4FF129E33EF448054BF77
:109C6000FDE4FF129EFC2290000FE0300B0D54FD2E
:109C7000F07F02129E33EF543F800D4402F07F02CA
:109C8000129E33EF448054BFFD7F02129EFC22C01F
:109C9000D075D008900010E030E518D2029000C3D3
:109CA000E0FE9000C2E0FDEEF54DEDF54E900010A7
:109CB0007420F0D0D022AB07AA069000E4E0300771
:109CC00011FFEBF4FEEF5EF0A3E0FDEAF4FFED5FC1
:109CD000F0224BF0A3E0FDED4AF022E4F5291290CA
:109CE00094AF491298BB129081B40204C20B800257
:109CF000D20B129C67E51FA2E6920B02A071300BFB
:109D000014E555240DFF129E33EF443FFDE5552425
:109D10000DFF029EFC745B2555129BA1E05480F060
:109D2000228B558A568957E4FFEFC3955B50147810
:109D300058129F231283617855129F22EE1283A737
:109D40000F80E62212A0A7756707129DE0129936D0
:109D5000E53C2404129B95129B84C210C205E4F5D5
:109D600061D2AFD28C22E4F529129094AF49129CB3
:109D700017129081B40204C20B8002D20B129C3FD6
:109D8000300003129F98227F0F129E33EF4403FD91
:109D90007F0F129EFC7F10129E33EF4402FD7F1056
:109DA000129EFC029337900007740FF0E4129B8A16
:109DB0007401129B8A7402129B8A9000047403122D
:109DC0009B8D22900000E020E102C32275190075EE
:109DD0001A0174692515F9E4F55EF55F8960D322EF
:109DE0009000B4E04402F0E4F58EF588900095E030
:109DF000547FF075A80F75B80F75891122EF448054
:109E0000900098F090009AE04486F090009AE0204C
:109E1000E7F9900099E0FF229000B6E054CFF020DF
:109E20000004E04408F09000B6E04406F0A3E044EB
:109E300005F022EF4480900098F090009AE044866C
:109E4000F090009AE020E7F9900099E0FF227F0768
:109E5000300B08129E33EF44088006129E33EF54F5
:109E6000F7FD7F07129EFC227F07300B08129E33FE
:109E7000EF44048006129E33EF54FBFD7F07129ED1
:109E8000FC228B548A558956E4FFEFC39D500C7811
:109E900054129F23E41283A70F80EF229000B5E0B5
:109EA0005407FF74017E00A80F0822FF7C007D0C80
:109EB0001283DBEF2290001074FFF09000117420E9
:109EC000F090001274FFF0E4900013F022E51344C8
:109ED00080900001F0900007E04401F0900000E065
:109EE0004401F0D322900098EFF0A3EDF090009A97
:109EF000E04486F090009AE020E7F922900098EF85
:109F0000F0A3EDF090009AE04486F090009AE020F3
:109F1000E7F9229000B5E05407FF74017E00A8071E
:109F20000822FEE475F0010283F98F551291C17881
:109F300072E64555F6129BC7E555F4787256F6223F
:109F40007F0F129E338F49E54954DF4414F549AD24
:109F5000497F0F029EFC9000C0E0FEEF30070442F4
:109F6000068003F452069000C0EEF022E55375F02F
:109F70006484E5F0700BA20192077F20129F56B215
:109F8000012212914F54D0F0900007E04408F0E411
:109F9000900004F0788DF622752901129094E5491D
:109FA000B4FF04D20B8002C20B12A0442290000422
:109FB0007403F0900006E030E006E054F14401F054
:109FC000227B007A00792A755A09AD50AC4F129B5A
:109FD0003F12910422E51224FE6007047002800201
:109FE000C3221290FED322751900751A01755E0006
:109FF000755F0075603DD322754AD8754BF0E54A10
:10A00000F58D854B8BD28E229000CAE0300D044432
:10A0100002F02254FDF0229000CAE0300E04440801
:10A02000F02254F7F0229000CAE0300F044420F0F0
:10A030002254DFF0229000B9E0300B0454FDF022EE
:10A040004402F022900060E0300B044480F022547F
:10A050007FF02290005AE0300B044402F02254FDBD
:10A06000F02290005AE0300B044401F02254FEF03C
:10A070002290005AE0300B044440F02254BFF022FA
:10A08000C0D075D008129FF80553D0D022755EFF5E
:10A09000855C5F855D6012911F22755EFF85515F53
:10A0A00085526012911F2243A84043B84022D20B30
:10A0B00002A0357F01029F2AC18100222222222292
:10A0C00000C20CE61E001E000CE216F100010102A7
:10A0D0000203230015FF8441FF891CFFA0BBFF85FD
:10A0E000FDFF94E8A0CC1101FF9D662182FF9CDB5F
:10A0F0000203A0F0A0D5FF9A79FFA0BEFFA0AEFF9B
:10A10000A0BFFF8A6FFFA0B303D903B2036402C8E4
:10A11000018F03EC03D903B2036402C803F603EC16
:10A1200003D903B2036403FB03F603EC03D903B2C0
:10A1300003FE03FB03F603EC03D903FE03FD03F95F
:10A1400003F303E6001F4000FF002B1101FF003E58
:10A150008002FF00562203FF007D0004FF00AC4494
:10A16000050400BB80060001588807050177000838
:10A1700001020002C00400058208000B060C001654
:03A180000C1800B8
:10A2900012011001000000108C0D7001000001027D
:02A2A0000001BB
:10A2A40009020601040100803209040000000101D2
:10A2B40000000A240100014F000201020C240201E3
:10A2C40001010002030000000C240202010200024A
:10A2D400030000000924030302030005000924030A
:10A2E4000401010008000A2406050101010202001C
:10A2F4000A240606020101020200072405080106D9
:10A304000009040100000102000009040101010127
:10A31400020000072401010101001D2402010202C0
:10A324001007401F00112B00803E00225600007DC4
:10A334000044AC0080BB000905010DC4000100000D
:10A3440007250101000000090402000001020000C9
:10A3540009040201010102000007240104010100B3
:10A364001D24020102021007401F00112B00803E31
:10A3740000225600007D0044AC0080BB0009058229
:10A384000DC40001000007250101000000090403B9
:10A39400000103000000092100010001224500071B
:06A3A40005870310000113
:10A3AC000403090414034E00550043004C004500FF
:10A3BC004F00200044004600240343005700500087
:10A3CC002000550053004200200044006500760038
:10A3DC0069006300650020003F003F002803430034
:10A3EC00570050002000550053004200200044004C
:10A3FC0065007600690063006500200023002000E2
:10A40C003000310028034300570050002000550055
:10A41C005300420020004400650076006900630090
:10A42C006500200023002000300032002803430088
:10A43C0057005000200055005300420020004400FB
:10A44C006500760069006300650020002300200091
:10A45C003000330028034300570050002000550003
:10A46C005300420020004400650076006900630040
:10A47C006500200023002000300034000C03350060
:08A48C003000320033004300F0
:10A49600050C0901A1018501150025010900090026
:10A4A6007501950281420900950181060601FF09A1
:10A4B6000195098106050C09CD09B709B509B695B7
:10A4C6000481060607FF09017508950D8106090036
:05A4D600950F9102C08A
:0CA4DC0065020D8C0178000101010000F8
:00000001FF
