:1080000002A00F02851E029C0C029FD002A010024B
:108010009FFE74FC2581F581129CC11289E6300C0B
:1080200067900002E030E40AE054EFF0129D041281
:108030009289900002E030E00A1298E2900002E09B
:1080400054FEF0900002E030E50A129542900002E2
:10805000E054DFF0900008E030E0067401F0128098
:108060008D900008E030E309129EFD90000874082E
:10807000F030010AE53B2410129B12129B01E53BF4
:10808000240D129B12129B01129FF78091E4900025
:1080900004F0900006E020E20302811D1291B87501
:1080A000180190000AE0F510E0F511E0751200F5F6
:1080B00013E0FEEE4212E0751400F515E0FEEE420C
:1080C00014E0751600F517E0FEEE4216C206128C9B
:1080D000F95039C3E517951AE51695195006AE16ED
:1080E000AF178004AE19AF1A8E198F1AE51A451909
:1080F0007005751804801BE51030E70575180280BF
:108100000375180312919C4480F0800612919944E3
:1081100020F0900006E054F444041291731291A3ED
:108120006403704C900006E030E1451291C04005B8
:108130007553108003851A531291B8E4F545E5454F
:10814000C39553500E90000AE01291AB1283B8050C
:108150004580EB90000612916AD206128CF9500A03
:1081600012917B700B75180480061291994420F0CF
:108170001291A36402600302821F1291C040057530
:1081800053108003851A53E4F545E545C3955350D4
:108190000E1291AB12837990000AF0054580EB1224
:1081A000919C4410F012917B705C900006E030E0EE
:1081B0003DE054F14401129173E5536410702A12AA
:1081C00091B812919C4410F0900006E030E00AE073
:1081D00054F144011291738010900006E020E23FB8
:1081E000900006E030E1E1800C75180480319000C9
:1081F00006E030E10812916AE4F51880229000064A
:10820000E030E2A68019D206128CF9900006E02038
:10821000E004E030E2F5900006E054F14401F01291
:1082200091A36404703DE51030E719900006E0204A
:10823000E104E030E2F5900006E05470F0E054F222
:108240004402801912919C4410F0900006E020E056
:1082500004E030E2F5900006E054F144011291731D
:10826000E4F5181291A364057015900006E020E370
:1082700004E030E2F5900006E054D0F0E4F5182276
:10828000E5126401600302835EF545128FD074121B
:1082900093651560070545E545B402EFE545B40271
:1082A00002C322E51530E7057548018003E4F5486F
:1082B000E51030E771751900751A03E511247E6029
:1082C0002714603714604B24037051129022248EBF
:1082D000F8E6F529129022248FF8E6F52A1290226A
:1082E0002490F8E6F52B803690A099E493F5299038
:1082F000A098E493F52A90A097801190A0C1E493F0
:10830000F52990A0C0E493F52A90A0BFE493F52B43
:10831000800C752905E4F52AF52B8002C322755DD2
:108320000012901B8038E51164017030200814F5AC
:1083300019751A03129022248EF9E4F55DF55E8911
:108340005F801B128FD0741193F51F128FD0E582BE
:108350002413F582E435831290138002C322D322C2
:10836000BB010689828A83E0225002E722BBFE021B
:10837000E32289828A83E49322BB010CE58229F5FA
:1083800082E5833AF583E0225006E92582F8E62269
:10839000BBFE06E92582F8E222E58229F582E58323
:1083A0003AF583E49322BB010689828A83F0225046
:1083B00002F722BBFE01F322F8BB010DE58229F58D
:1083C00082E5833AF583E8F0225006E92582C8F673
:1083D00022BBFE05E92582C8F222EF8DF0A4A8F0A9
:1083E000CF8CF0A428CE8DF0A42EFE22A42582F5F9
:1083F00082E5F03583F58322FAE6FB0808E6F925E5
:10840000F0F618E6CA3AF622E493FB740193FA7484
:108410000293F922D083D082F8E49370127401930E
:10842000700DA3A393F8740193F5828883E47374A9
:1084300002936860EFA3A3A380DF8A838982E47339
:10844000E51FC4540FF539E51F540F1424FD5040A7
:1084500070030284F91470030284E12405600302AE
:10846000851D74942539F8E6FF78A0D3128FE0506B
:108470000F74942539F8A606D20A853954029C7BDC
:10848000D20A85395474942539F8E6F5550296C414
:10849000E51EB4030122E51E24FE600804700A757F
:1084A000480280087548018003754803128FF5E67D
:1084B000FF74A02548F8128FDF5005128FF5A6062D
:1084C000E54864026005E548B40306D20AD20B8091
:1084D00004D20AC20B853954128FF5E6F555028F86
:1084E0005B749E2539F8E678A5128FDE5007749EDE
:1084F0002539F8A606D20A8016749C2539F8E67844
:10850000A4128FDE5007749C2539F8A606C20A858E
:108510003954749E2539F8E6F55512922A22C0D0B6
:1085200075D0080560129E198005C333CE33CED8AE
:10853000F97803C333CE33CED8F9FFE560FB7A0078
:108540006F7001EE703D30043AC28CC2047F071296
:108550009D7A8F61E51D30E507E5614408FF8005E0
:10856000E56154F7FF8F61E51D30E407E5614404E0
:10857000FF8005E56154FBFF8F61AD617F07129EAF
:10858000628076129E198005C333CE33CED8F9129D
:108590009E28B50B17EEB50A13200C10C28CD20C16
:1085A000900000E04480F09000B48049129E198051
:1085B00005C333CE33CED8F9129E2865607001EE24
:1085C0007037300C34C28C7F0F129D7AEF54C9F58E
:1085D00061FD7F0F129E62E4900059F09000B9E0B7
:1085E0004402F0900058E0440CF000000000E05419
:1085F000F3F09000B9E054FDF0D0D022E51E24FE47
:10860000603A1470030286A01460622403600302BF
:1086100086B37F011286C278981286B4D20AD20B32
:1086200075540178991286B4E51D30E206D20AD25B
:108630000B8004D20AC20B1299BF805F7F0212998D
:10864000F4D20AC20BE4F55478961286BBD20AC261
:108650000B75540178971286BBE51D30E106D20AEE
:10866000D20B8004D20AC20B1299BF802E7F041253
:1086700086C2789AE6F555128F5BD20AD20B7554F2
:1086800001789BE6F555128F5BE51D30E306D20AB3
:10869000D20B8004D20AC20B1299BFC20A029FB247
:1086A000D20A129FB2E51D30E604D20A8002C20A45
:1086B000129FA322E6F555128F5B22E6F555128F25
:1086C0005B221299F4D20AD20BE4F55422900034C2
:1086D000E020E603028754E0C313541FC3941050F4
:1086E00008E0C313541FFF80027F108F64E564709D
:1086F000028013E564C394014051900030E0786536
:10870000F6E564B40105128BB6C322900031E0781F
:1087100066F618E6FE900036E0FBEBAC06FD79024B
:10872000E9C39564501A128B9DE0FFE924FEFBE437
:1087300034FFFAED2BF582EC3AF583EFF00980E097
:10874000128BB67866E630E702D322900034E0441C
:1087500040F08047900034E030E7407866E6547F90
:10876000FFC39410500280027F108F647865E6FE8C
:10877000900036E0FDAC06E4F9E9C395645012EDD3
:1087800029F582E43CF583E0FF128B9DEFF0098030
:10879000E8128BB6900034E04480F0C322E5122446
:1087A000FE602614604024E2700302883A147003CD
:1087B0000288482421600302886420070675190096
:1087C000751A12129A290288662007148527828555
:1087D0002683740393FE740293FDEEF519EDF51AEA
:1087E0001297A202886620074CE5131460201460DB
:1087F0002514603F24D1602624E260222450703387
:10880000755BA3755CAC751900751A048027755BE0
:10881000A3755CB0800E85465B85475C8006755B02
:10882000A4755C16855C82855B83E493751900F5FD
:108830001A8002C322129FDD802C200706751900C2
:10884000751A09129F11801E200714854F82854ECC
:1088500083740893FE740793FDEEF519EDF51A1273
:108860009FEA8002C322D322E51F1424FD504770E3
:108870000302890D1470030288FF14700302891B20
:108880002406600302892EE51D30E016D20AD20BC1
:1088900012998AD20A129F6720000302892ED20AF7
:1088A0008011D20AC20B12998AC20A129F67300045
:1088B0007DC20A029F94E51EB4030122E51E24FE38
:1088C000600804700A7548028008754801800375C5
:1088D000480374017E00A848088005C333CE33CE18
:1088E000D8F9FFEF551D600BD20AD20B1299BFD2F7
:1088F0000A8009D20AC20B1299BFC20A029F76E50A
:108900001D30E504D20A8002C20A029DCBE51D306B
:10891000E404D20A8002C20A029DE5E51EB4030EF9
:10892000E51D30E604D20A8002C20A129FA322E5A6
:108930004C6522FEE54D6523FFE53D5EF541E53ED4
:108940005FF542E4F54B74017E00A84B088005C337
:1089500033CE33CED8F9F54A8E49E5415549FEE587
:1089600042554A4E606CE54C5549FEE54D554A4E20
:108970006021E54A4223E5494222E54BC394085071
:1089800009E54AF4786E56F68041E549F4786F5669
:10899000F68038E54AF4FFE549F4FEEF5223EE5243
:1089A00022E54BC394085008786EE6454AF68006E7
:1089B000E549786F46F6E54B78A666700EE54024EB
:1089C0000CF582E4353FF583129B017F20129EA7B0
:1089D000800C054BE54BC394105003028946E54BD0
:1089E000B41002C20122200C05129FF780F8C2AF1A
:1089F000C28CC28D900002E030E4F9900002E05495
:108A0000EFF0E4F58CF58AD28CF553129E90800538
:108A1000C333CE33CED8F9FF7C007D0C1283DAC38A
:108A2000E5539FEE6480F8748098501A129FF720E7
:108A30008D07900002E030E4F6900002E020E406AA
:108A4000C28D055380C5C28CC28DD2AF129E90805C
:108A500005C333CE33CED8F9FF7C007D0C1283DA08
:108A6000EF65537001EE70307F0F129DB0EF54C967
:108A7000FD7F0F129E79E4900059F09000B9E04418
:108A800002F0900058E0440CF000000000E054F3C5
:108A9000F09000B9E054FDF022E51030E75CE511FC
:108AA000247E601A14601714603B2403703FE513A2
:108AB00014F548E4F529129009E6F52A8031E51FFE
:108AC00025E02413F582E434A0AD82FC7B007A001B
:108AD0007929755902129ABCE511B4830385292AB4
:108AE000E4F529800AE4F529752A018002C322757C
:108AF0001900751A02755D008010E5116401703867
:108B000020090CF519751A02F55D12901B802BE5F2
:108B10001314F548E52930E70BE52A04FF12900904
:108B2000A6078005129009A62AE5486003431F1096
:108B30001290351290158002C322D322C313FF2452
:108B4000DAF582E43400F583229000A3F0A3F0E488
:108B5000A3F09000A622900053E0540775F00AA4F9
:108B6000245BF582E434A0F58322A3F0A37455F0CE
:108B70009000A022900095E04480F0129FF7900AA8
:108B800074E022900080F0900A71E0900093F0224F
:108B9000900A72E0900081F0900A60E022E95403AC
:108BA0002430F582E43400F58322900A73E09000CB
:108BB00082F090009422900037E04401F022748308
:108BC0002FF582E43400F5832274612FF582E434BA
:108BD0000AF583229000AC7428F022AD079000B60D
:108BE000E054FDF09000B8E054BFF0E4F562F563A6
:108BF000ED24FE602504704A128BD474CB128B6A6C
:108C00007416F0A3F0A37480F07416128B497416D6
:108C1000F0A3F0A37490F0E4805A128BD474E012A5
:108C20008B6A740BF0A3F0A37480F0740B128B4961
:108C30007442F0A37416F0A37410F09000B374089B
:108C4000F022128BD4A37420128B6B740EF0A374D9
:108C50002AF0E4A3F09000A3740E128B4C74E1F0A0
:108C6000A37470F0A37410F0E49000A9F0A374381A
:108C7000F0E4A3F09000B3F022E51224FE605C045F
:108C80007070E51364017051786D76019000FEE01C
:108C90007870F69000FFE008F69000FEE0FE90008D
:108CA000FFE0FDED8E43F544E4F5457868E6FFC34B
:108CB000940A500280027F0AE545C39F501012902B
:108CC000BBE0FF74732545F8A607054580DD7557A1
:108CD0000075580075596D800BC322755700755883
:108CE0000075597D755A107B007A007929129C9E77
:108CF0008002C3221290A6D322E5105460F548707A
:108D000052200644F51BF51CE5111284148D450014
:108D10008D42018D3F038D30058D2C068D3C088DD5
:108D200036098D390A8D330B00008D73C207802000
:108D3000029E4A029A8C029A5C029D40029F370270
:108D4000975B02991D02944AE51124FA7025D20717
:108D500002879DE548B4200F200605E4F51BF51CAD
:108D6000A206920702949FE548B44007A206920724
:108D7000028EE4C322E51030E71DE511B48116AF81
:108D80001FE51DA807088002C313D8FC5401F5296C
:108D9000128FFF8012C322E5116401704F20090C6D
:108DA000F519751A01F55D12901B8042E5296011D5
:108DB000AF1F7401A807088002C333D8FC421D808E
:108DC00010AF1F7401A807088002C333D8FCF45207
:108DD0001DE51F64056005E51FB40405300402D3DA
:108DE00022129035A3A3A31290158002C322D3228E
:108DF000E51224FE600C04706E1290E87A00796D22
:108E0000805EE5296401705DE52A7022E52BB4FEE1
:108E10001DE52CC3940A7F0A5002AF2C7868A60780
:108E20009000FEE52DF09000FFE52EF0802BE52A66
:108E3000FEE52B8E43F544E52CC3940C7F0C5002C9
:108E4000AF2C8F48E4F545E545C39548500B742D8C
:108E50001290B6EFF0054580EE1290E87A00797D29
:108E6000129C9E8004C322C322D322EFD3940F50BE
:108E700026EF30E00DC313FE128B3FE054F04401A7
:108E8000800CEFC313FE128B3FE0540F4410FC74B0
:108E9000DA2E128B41ECF0EDD3940F5020ED30E040
:108EA0000A128B3CE054F044028009ED128B3CE046
:108EB000540F4420FE74DA2F128B41EEF0EBD39462
:108EC0000F5020EB30E00A128B3CE054F04403805A
:108ED00009EB128B3CE0540F4430FE74DA2F128BF6
:108EE00041EEF02220074E1290ACD3E5179410E526
:108EF000169400500885161985171A8002C322E5BA
:108F00001030E729E5116402704FF543851344F5ED
:108F100045C3E545951AE4951950101290BBE0FF42
:108F200074292545F8A607054580E6D322E5116496
:108F3000017026D322E5116401701EF543851344A8
:108F4000F545C3E545951AE49519500B742912901F
:108F5000B6EFF0054580EBD322C322300A49300B2F
:108F600017129B26400774319555FF8007E555F48D
:108F7000042431FF8F568015129B264007742595D7
:108F800055FF8007E555F4042425FF8F56E554244A
:108F900011FF129DB0EF54C0FFE556543F4FFDE561
:108FA000542411FF029E79129B26E555400524109A
:108FB000FF8008F404FFC374109FFF8F56129B2E8E
:108FC000E054C0FFE556543F4FFF129B2EEFF022B6
:108FD000854082853F8375F005E5450283ECFFC33C
:108FE000E6FE6480F8EF64809822128379FFE545FD
:108FF00075F005A422E54825E024942539F822756A
:109000001900751A01755D0022E51F25E0249425DD
:1090100048F822F58312840802843A755E00755F71
:109020002922E54875F003A422E51FC45403F54541
:109030002469F8E622854082853F8322E4F545AB2A
:109040005DAA5EA95F900001128FEA2498F582E480
:1090500034A0F583E493B50714900002128FEA243C
:1090600097F582E434A0F583E4936F60070545E546
:1090700045B409CBE5286015E545B409047548FFFA
:1090800022128FEE249BF582E434A08012E545B4D1
:109090000903754506128FEE249AF582E434A0F593
:1090A00083E493F54822751900751A10755D0075F3
:1090B0005E00755F29222545F8E6FFE5442545F564
:1090C00082E43543F58322E51C255FF55FE51B351A
:1090D0005EF55E22853B82853A83E493FE740193BC
:1090E000F5828E83740193227557FF755800755968
:1090F00029755A107B00229000047403F09000063A
:10910000E022E510541FF54822E51E64037019E5BE
:109110001D30E60A531DBFC20A129FA38037431DAC
:1091200040D20A129FA3803CE51E24FE600D24FE5F
:10913000600E24037033754804800875480280036C
:10914000754808E51D55486010E548F4521DD20ADF
:10915000C20B1299BFC20A800DE548421DD20AD245
:109160000B1299BFD20A129F7622E05470F0E0549D
:10917000F24402F09000087401F022AF537E00C365
:10918000E51A9FF51AE5199EF519EF251CF51CEE59
:10919000351BF51BE51A451922751805900006E0E8
:1091A00054F022E4900004F0E51822AB5DAA5EA919
:1091B0005F85458275830022900007E04401F0221C
:1091C000D3E51A9410E519940022786D760175455F
:1091D00006746D2545F8E4F60545E545B410F290B2
:1091E00000FEE0FE9000FFE0FDED8E43F5449000B0
:1091F000FEE07870F69000FFE008F6E4F545786848
:10920000E6FFC3940A500280027F0AE545C39F50DF
:1092100018E5442545F582E43543F583E0FF747392
:109220002545F8A607054580D522300A24C3E55513
:1092300064809480400774309555FF8007E555F4AD
:10924000042430FF8F56E5542408129278240880B5
:1092500022C3E55564809480400774219555FF80B2
:1092600007E555F4042421FF8F56E554240A129291
:1092700078240AFF129E7922FF129DB0EF54C0FF9E
:10928000E556543F4FFDE55422200405C28C129E42
:10929000E8129D231295E0900061E030000944013E
:1092A000F0E054FDF0800754FEF0E04402F07B0053
:1092B0007A00796D7D10129DFFE53B2407129B1209
:1092C000129B01C20174FFF522F523E4F518F53C69
:1092D000FB7A0079697D04129DFF12962C90005A4A
:1092E000E054FBF022851545128FD0740C93F5489D
:1092F00030E702C322AF13E548540FFEEFD39E4080
:109300000122128FD0740D935480F548EF7016E54A
:109310004890000470030480027402F0900006E09C
:1093200054BFF08014E54890000470030480027478
:1093300002F0900006E04440F0E4900004F0D322F4
:10934000C2AF129E908005C333CE33CED8F9FF7CD6
:10935000097DC41283DAAD07AC06C3E49DFDE49C2D
:10936000FCC28CF58C8D8AC28DD28C208D05129F0B
:10937000F780F8C28CC28DE4F58CF58A7F07129DC8
:10938000B0EF54F3FD7F07129E797F0F129DB0EF6F
:1093900054F7FD7F0F129E79D2AF22900059E0540E
:1093A000F0F0200603300921900058E03009054410
:1093B000C0F08005547F4440F0900059E04401F033
:1093C00020070FE04406F08009900058E0448054E4
:1093D000BFF0300717900059E03008054404F080D2
:1093E000034408F0900057E04480F022900057E0DA
:1093F000547FF022900059E0540FF020060330090A
:109400001F900058E03009074430F0A3E080025478
:10941000DF4410F0200712900059E04460F080090A
:10942000900058E0442054EFF0300716900057E0C9
:109430004410F0900059E03008044440F022448089
:10944000F022900057E054EFF022E510541F146012
:109450001914601B24027036A203E433F52990002E
:1094600000E030E22B4329028026E4F5298021E543
:1094700015547FFF7401A807088002C333D8FCF598
:1094800048788D567F0060027F018F298002C322B9
:10949000E4F52AF519751A02F55D1290AFD3221280
:1094A00091026401703D851548E5487007A2079256
:1094B000080297101290D46548702620071AE5110B
:1094C00024F7600A14600A24097024028C79029F30
:1094D00025E4F519F51AD322E51124F77011028D50
:1094E000F0C322E548B40207A2079208028280C3B3
:1094F00022E51030E72BE511247E600F14600E1476
:10950000600924037011851E29800E8005851F299E
:1095100080077529018002C322128FFF12901B80E1
:109520001FE511B4011A20090B128FFF755E00753B
:109530005F1E800CE5402409F582E4353F1290134C
:10954000D32220044DC28C129EE87F10129DB0EFF2
:109550004402FD7F10129E797F0F129DB0EF54F7E9
:109560004403FD7F0F129E79D206AF25AE24129CD4
:1095700033E4F560D204F58CF58AD28CC206C207BA
:10958000C208C2091293F4C206C207C208C2091275
:10959000939B22128B74128B83E4FF900A71E0FE7E
:1095A000EFC39E500D128BC9E0FE128BBEEEF00F82
:1095B00080E9128B906008128BAA74B8F080069034
:1095C00000947498F0900094E030E0057440F080CE
:1095D00007900094E020E7ED900095E05480F022A1
:1095E00020050E7F04129DB0EF54BFFD7F04129E34
:1095F000797F13129DB0EF54EBFD7F13129E797D9E
:10960000067F1B129E79C206C207C208C2091293C6
:10961000F4C206C207C208C20912939B7F10129DB2
:10962000B0EF448054BFFD7F10029E797B007A002A
:1096300079947D0C129DFF789476F60876F67898EA
:10964000761408761490A014E49378A0F690A018ED
:10965000E49378A2F6E4F51DF51F129AEC751F103D
:10966000129AFB751F02129AEC751F1285408285B3
:109670003F8312840802843A128B744401128B8354
:10968000128B906008128BAA74BAF0800690009436
:10969000749AF0900094E030E0047440F02290005E
:1096A00094E020E7EEE4FF900A71E0FEEFC39E50E5
:1096B0000D128BBEE0FE128BC9EEF00F80E9E49034
:1096C0000095F022300A22129B3AF404FF8F56E5EF
:1096D00054240DFF129DB0EF54C0FFE556543F4F88
:1096E000FDE554240DFF029E79129B3A4005243C6F
:1096F000FF8008F404FFC3743C9FFF8F56129B1A2F
:10970000E05480FFE556547F4FFF129B1AEFF02282
:10971000E514FF129035740F93FC7410932FF582AB
:10972000E43CF583E493FF540FF548EFC4540FF580
:109730001FE54824FB601B2402701EE51224FE6016
:109740000A047015A2089209028D75A208920902F6
:109750008A99A20892090294F1C32212910270120E
:10976000E5136401703A300207900000E04404F011
:10977000D322E54864027028E5137024E515547F70
:10978000F545B407151290F754F04420F0E490002A
:1097900004F0788DE64480F6D322E5457002D322AA
:1097A000C322E51C451B7014FB7A007929755910FA
:1097B000AD27AC26129ABC1290AC800C755DFF856B
:1097C000265E85275F1290C7E51C451B7016A20315
:1097D00033C4333354C04480FFA202E433C433544F
:1097E000E04FF530227524FD75258F753DFD753EE2
:1097F0008FA202920AAD3EAC3DAF25AE2412995421
:10980000E525523EE524523D78A676037B067D058C
:109810007F04128E6BD20A129F58E4F552129F48B1
:10982000129E32029D9575985075D880438780129C
:109830008B56C083C0829000B5E05407D082D0839D
:1098400075F0021283ECE493F5BA128B56C083C014
:10985000829000B5E05407D082D08375F002128365
:10986000EC740193F5AA228F54E554540FC454F0BC
:10987000FF90000EE0540F4FF0E5547F04B4080849
:10988000129DB0EF44028006129DB0EF54FDFD7FA3
:1098900004129E79E554C3940740047D408002E49D
:1098A000FD7F19129E7922C202C203D205D2007531
:1098B0001E01753AA0753B45853B82853A8374024B
:1098C00093FE7403938E3FF5407526A27527A47509
:1098D0004EA3754F9A7550A47551247546A37547CC
:1098E000E222900000E030E1332004307F0F129D2F
:1098F000B0EF54FE4408FD7F0F129E797F07129D42
:10990000B0EF440CFD7F07129E79C206AF25AE244E
:10991000129C33E4F560F58CF58AD28C2212910208
:109920007012E5136401702A300207900000E054C1
:10993000FBF0D322E54864027018E5137014E515B6
:10994000547FF545B40705129EBDD322E54570024C
:10995000D322C322AB07AA06EFF49000C4F0EAF4C6
:10996000F9A3F09000C6EDF0ECA3F09000C8EFF082
:10997000AF02EAA3F0EBF49000E4F0A3E9F0300AC0
:10998000089000E2EBF0A3EFF022300A197F0F30CD
:109990000B08129DB0EF44088006129DB0EF54F7FB
:1099A000FD7F0F029E7990005BE0300B094480F050
:1099B000A3E04480F022547FF0A3E0547FF02230F3
:1099C0000A197F0F300B08129DB0EF444080061239
:1099D0009DB0EF54BFFD7F0F029E7990005DE03097
:1099E0000B094440F0A3E04440F02254BFF0A3E050
:1099F00054BFF022EF24FE601124FE601424037093
:109A000020129A22448054BF8011129A22543F801F
:109A10000A7F10129DB0EF4440547FFD7F10129ECC
:109A200079227F10129DB0EF22E51C451B7023FBAD
:109A30007A0079297CA27D90755910129ABC7531F3
:109A40008C75320D7533C17534017535017536016C
:109A50008006E4F529752A011290AC2285133CE5B5
:109A60003C9000006017E04402F0E53B240AF582D8
:109A7000E4353AF58312840812843A8004E054FDF8
:109A8000F0788DE630E703129EBDD322900000E00F
:109A900020E102C322788DE630E703129EBD1290CA
:109AA000D4F548AF15EF600BC3954850061292E508
:109AB00040012274692515F8A613D3228B548A55C8
:109AC00089568C578D58E4FFEFC39559501D0558A2
:109AD000E558AC577002055714F5828C83E49378EF
:109AE00054129E9FEE1283A60F80DD228540828550
:109AF0003F83A3A3A312840812843A854082853F42
:109B00008312840802843A900004F0900005748067
:109B1000F022F582E4353AF58322745B2554F58210
:109B2000E43400F58322C3E5556480948022745D9B
:109B30002554F582E43400F58322C3E5556480940E
:109B400080E555229000047403F0900007E044087B
:109B5000F0E4F545746D2545F8E690000AF00545FA
:109B6000E545B410EF12919C4410F02290003EE0C5
:109B7000FF900039E0FD7C00EF30E20B90003BE00D
:109B80008D828C83F080098D828C83E090003BF085
:109B9000EFA2E322AC07EC540FFE90000EE054F06D
:109BA0004EF07F04BC0808129DB0EF4408800612F6
:109BB0009DB0EF54F7FD7F04129E792290000FE0D4
:109BC000300A0D54FEF0E4FF129DB0EF543F800DBB
:109BD0004401F0E4FF129DB0EF448054BFFDE4FF68
:109BE000129E792290000FE0300A0D54FDF07F02A2
:109BF000129DB0EF543F800D4402F07F02129DB0E1
:109C0000EF448054BFFD7F02129E7922C0D075D0F0
:109C100008900010E030E518D2019000C3E0FE90FB
:109C200000C2E0FDEEF54CEDF54D9000107420F013
:109C3000D0D022AB07AA069000E4E0300611FFEB7B
:109C4000F4FEEF5EF0A3E0FDEAF4FFED5FF0224BDF
:109C5000F0A3E0FDED4AF022E4F52812903CAF4875
:109C6000129867129029B40204C20A8002D20A1222
:109C70009BE4E51FA2E6920A029FC1300A14E55454
:109C8000240DFF129DB0EF443FFDE554240DFF026B
:109C90009E79745B2554129B1EE05480F0228B54F5
:109CA0008A558956E4FFEFC3955A50147857129E8F
:109CB000A01283607854129E9FEE1283A60F80E656
:109CC00022129FF7756707129D5D1298A7E53B2446
:109CD00004129B12129B01C20CC204E4F560D2AFC5
:109CE000D28C22E4F52812903CAF48129B9412903B
:109CF00029B40204C20A8002D20A129BBC300003BB
:109D0000129ED3227F0F129DB0EF4403FD7F0F12EE
:109D10009E797F10129DB0EF4402FD7F10129E7954
:109D2000029340900007740FF0E4129B0774011235
:109D30009B077402129B079000047403129B0A2273
:109D4000900000E020E102C322751900751A017429
:109D5000692515F9E4F55DF55E895FD3229000B4BD
:109D6000E04402F0E4F58EF588900095E0547FF031
:109D700075A80F75B80F75891122EF44809000986F
:109D8000F090009AE04486F090009AE020E7F99085
:109D90000099E0FF229000B6E054CFF0200004E0EC
:109DA0004408F09000B6E04406F0A3E04405F02239
:109DB000EF4480900098F090009AE04486F0900084
:109DC0009AE020E7F9900099E0FF227F07300A0827
:109DD000129DB0EF44088006129DB0EF54F7FD7F4E
:109DE00007129E79227F07300A08129DB0EF4404C3
:109DF0008006129DB0EF54FBFD7F07129E79228BE7
:109E0000538A548955E4FFEFC39D500C7853129E3A
:109E1000A0E41283A60F80EF229000B5E05407FF64
:109E200074017E00A80F0822FF7C007D0C1283DAEB
:109E3000EF2290001074FFF09000117420F0900059
:109E40001274FFF0E4900013F022E51344809000B8
:109E500001F0900007E04401F0900000E04401F0C0
:109E6000D322900098EFF0A3EDF090009AE04486A2
:109E7000F090009AE020E7F922900098EFF0A3ED2F
:109E8000F090009AE04486F090009AE020E7F922F2
:109E90009000B5E05407FF74017E00A8070822FE79
:109EA000E475F0010283F88F541291CA7872E64586
:109EB00054F6129B44E554F4787256F6221290F749
:109EC00054D0F0900007E04408F0E4900004F078EB
:109ED0008DF62275280112903CE548B4FF04D20AA1
:109EE0008002C20A129F94227F0F129DB08F48E514
:109EF0004854DF4414F548FD7F0F029E799000041A
:109F00007403F0900006E030E006E054F14401F004
:109F1000227B007A007929755909AD4FAC4E129A0F
:109F2000BC1290AC22E51224FE600704700280028D
:109F3000C3221290A6D322751900751A01755D000F
:109F4000755E00755F3CD3227549D8754AF0E549C6
:109F5000F58D854A8BD28E229000CAE0300A0444E7
:109F600002F02254FDF0229000CAE0300A044408B6
:109F7000F02254F7F0229000CAE0300A044420F0A6
:109F80002254DFF0229000B9E0300A0454FDF022A0
:109F90004402F022900060E0300A044480F0225431
:109FA0007FF02290005AE0300A044402F02254FD6F
:109FB000F02290005AE0300A044401F02254FEF0EE
:109FC0002290005AE0300A044440F02254BFF022AC
:109FD000C0D075D008129F480552D0D022755DFFC1
:109FE000855B5E855C5F1290C722755DFF85505E64
:109FF00085515F1290C72243A84043B84022758123
:10A00000E8028012D20A029F857F01029EA72222C7
:10A0100022222200C20CE61E001E000CE216F100F5
:10A020000101020203230015FF8440FF8868FFA09E
:10A030000EFF85FCFF9109A01F1101FF9CE3218207
:10A04000FF9C580203A043A028FF97E5FFA011FF43
:10A05000A004FFA012FF892FFFA00903D903B203B8
:10A060006402C8018F03EC03D903B2036402C8037E
:10A07000F603EC03D903B2036403FB03F603EC031A
:10A08000D903B203FE03FB03F603EC03D903FE037B
:10A09000FD03F903F303E6001F4000FF002B11014D
:10A0A000FF003E8002FF00562203FF007D0004FFF8
:10A0B00000AC44050400BB80060001588807050178
:10A0C00077000801020002C00400058208000B06A8
:06A0D0000C00160C180044
:10A2900012011001000000108C0D7001000001027D
:02A2A0000001BB
:10A2A40009020601040100803209040000000101D2
:10A2B40000000A240100014F000201020C240201E3
:10A2C40001010002030000000C240202010200024A
:10A2D400030000000924030302030005000924030A
:10A2E4000401010008000A2406050101010202001C
:10A2F4000A240606020101020200072405080106D9
:10A304000009040100000102000009040101010127
:10A31400020000072401010101001D2402010202C0
:10A324001007401F00112B00803E00225600007DC4
:10A334000044AC0080BB000905010DC4000100000D
:10A3440007250101000000090402000001020000C9
:10A3540009040201010102000007240104010100B3
:10A364001D24020102021007401F00112B00803E31
:10A3740000225600007D0044AC0080BB0009058229
:10A384000DC40001000007250101000000090403B9
:10A39400000103000000092100010001224500071B
:06A3A40005870310000113
:10A3AC0004030904320343002D004D0065006400D2
:10A3BC0069006100200045006C00650063007400BA
:10A3CC0072006F006E00690063007300200049008A
:10A3DC006E0063002E003403550053004200200031
:10A3EC0041006400760061006E006300650064004B
:10A3FC00200041007500640069006F0020004400DB
:10A40C00650076006900630065000C0335003000C0
:06A41C0032003300430092
:10A42400050C0901A10185011500250109E909EAC5
:10A4340075019502814209E2950181060601FF0931
:10A444000195098106050C09CD09B709B509B69529
:10A454000481060607FF09017508950D81060900A8
:05A46400950F9102C0FC
:0CA46A0065020D8C01C100010101000021
:00000001FF
